
atividade05_control.elf:     file format elf32-avr

Sections:
Idx Name          Size      VMA       LMA       File off  Algn
  0 .data         00000048  00800100  00001438  000014cc  2**0
                  CONTENTS, ALLOC, LOAD, DATA
  1 .text         00001438  00000000  00000000  00000094  2**1
                  CONTENTS, ALLOC, LOAD, READONLY, CODE
  2 .bss          00000056  00800148  00800148  00001514  2**0
                  ALLOC
  3 .debug_aranges 00000060  00000000  00000000  00001514  2**0
                  CONTENTS, READONLY, DEBUGGING
  4 .debug_pubnames 0000043d  00000000  00000000  00001574  2**0
                  CONTENTS, READONLY, DEBUGGING
  5 .debug_info   000016f8  00000000  00000000  000019b1  2**0
                  CONTENTS, READONLY, DEBUGGING
  6 .debug_abbrev 0000055d  00000000  00000000  000030a9  2**0
                  CONTENTS, READONLY, DEBUGGING
  7 .debug_line   00000e14  00000000  00000000  00003606  2**0
                  CONTENTS, READONLY, DEBUGGING
  8 .debug_frame  00000260  00000000  00000000  0000441c  2**2
                  CONTENTS, READONLY, DEBUGGING
  9 .debug_str    000007a1  00000000  00000000  0000467c  2**0
                  CONTENTS, READONLY, DEBUGGING
 10 .debug_loc    00000577  00000000  00000000  00004e1d  2**0
                  CONTENTS, READONLY, DEBUGGING
 11 .debug_ranges 00000288  00000000  00000000  00005394  2**0
                  CONTENTS, READONLY, DEBUGGING

Disassembly of section .text:

00000000 <__vectors>:
       0:	0c 94 34 00 	jmp	0x68	; 0x68 <__ctors_end>
       4:	0c 94 53 00 	jmp	0xa6	; 0xa6 <__vector_1>
       8:	0c 94 51 00 	jmp	0xa2	; 0xa2 <__bad_interrupt>
       c:	0c 94 51 00 	jmp	0xa2	; 0xa2 <__bad_interrupt>
      10:	0c 94 51 00 	jmp	0xa2	; 0xa2 <__bad_interrupt>
      14:	0c 94 51 00 	jmp	0xa2	; 0xa2 <__bad_interrupt>
      18:	0c 94 51 00 	jmp	0xa2	; 0xa2 <__bad_interrupt>
      1c:	0c 94 51 00 	jmp	0xa2	; 0xa2 <__bad_interrupt>
      20:	0c 94 51 00 	jmp	0xa2	; 0xa2 <__bad_interrupt>
      24:	0c 94 51 00 	jmp	0xa2	; 0xa2 <__bad_interrupt>
      28:	0c 94 51 00 	jmp	0xa2	; 0xa2 <__bad_interrupt>
      2c:	0c 94 51 00 	jmp	0xa2	; 0xa2 <__bad_interrupt>
      30:	0c 94 51 00 	jmp	0xa2	; 0xa2 <__bad_interrupt>
      34:	0c 94 51 00 	jmp	0xa2	; 0xa2 <__bad_interrupt>
      38:	0c 94 51 00 	jmp	0xa2	; 0xa2 <__bad_interrupt>
      3c:	0c 94 51 00 	jmp	0xa2	; 0xa2 <__bad_interrupt>
      40:	0c 94 51 00 	jmp	0xa2	; 0xa2 <__bad_interrupt>
      44:	0c 94 51 00 	jmp	0xa2	; 0xa2 <__bad_interrupt>
      48:	0c 94 59 02 	jmp	0x4b2	; 0x4b2 <__vector_18>
      4c:	0c 94 51 00 	jmp	0xa2	; 0xa2 <__bad_interrupt>
      50:	0c 94 51 00 	jmp	0xa2	; 0xa2 <__bad_interrupt>
      54:	0c 94 51 00 	jmp	0xa2	; 0xa2 <__bad_interrupt>
      58:	0c 94 51 00 	jmp	0xa2	; 0xa2 <__bad_interrupt>
      5c:	0c 94 51 00 	jmp	0xa2	; 0xa2 <__bad_interrupt>
      60:	0c 94 51 00 	jmp	0xa2	; 0xa2 <__bad_interrupt>
      64:	0c 94 51 00 	jmp	0xa2	; 0xa2 <__bad_interrupt>

00000068 <__ctors_end>:
      68:	11 24       	eor	r1, r1
      6a:	1f be       	out	0x3f, r1	; 63
      6c:	cf ef       	ldi	r28, 0xFF	; 255
      6e:	d8 e0       	ldi	r29, 0x08	; 8
      70:	de bf       	out	0x3e, r29	; 62
      72:	cd bf       	out	0x3d, r28	; 61

00000074 <__do_copy_data>:
      74:	11 e0       	ldi	r17, 0x01	; 1
      76:	a0 e0       	ldi	r26, 0x00	; 0
      78:	b1 e0       	ldi	r27, 0x01	; 1
      7a:	e8 e3       	ldi	r30, 0x38	; 56
      7c:	f4 e1       	ldi	r31, 0x14	; 20
      7e:	02 c0       	rjmp	.+4      	; 0x84 <.do_copy_data_start>

00000080 <.do_copy_data_loop>:
      80:	05 90       	lpm	r0, Z+
      82:	0d 92       	st	X+, r0

00000084 <.do_copy_data_start>:
      84:	a8 34       	cpi	r26, 0x48	; 72
      86:	b1 07       	cpc	r27, r17
      88:	d9 f7       	brne	.-10     	; 0x80 <.do_copy_data_loop>

0000008a <__do_clear_bss>:
      8a:	11 e0       	ldi	r17, 0x01	; 1
      8c:	a8 e4       	ldi	r26, 0x48	; 72
      8e:	b1 e0       	ldi	r27, 0x01	; 1
      90:	01 c0       	rjmp	.+2      	; 0x94 <.do_clear_bss_start>

00000092 <.do_clear_bss_loop>:
      92:	1d 92       	st	X+, r1

00000094 <.do_clear_bss_start>:
      94:	ae 39       	cpi	r26, 0x9E	; 158
      96:	b1 07       	cpc	r27, r17
      98:	e1 f7       	brne	.-8      	; 0x92 <.do_clear_bss_loop>
      9a:	0e 94 a8 00 	call	0x150	; 0x150 <main>
      9e:	0c 94 1a 0a 	jmp	0x1434	; 0x1434 <_exit>

000000a2 <__bad_interrupt>:
      a2:	0c 94 00 00 	jmp	0	; 0x0 <__vectors>

000000a6 <__vector_1>:
		}
	}
}

ISR(INT0_vect)
{
      a6:	1f 92       	push	r1
      a8:	0f 92       	push	r0
      aa:	0f b6       	in	r0, 0x3f	; 63
      ac:	0f 92       	push	r0
      ae:	11 24       	eor	r1, r1
      b0:	2f 93       	push	r18
      b2:	3f 93       	push	r19
      b4:	4f 93       	push	r20
      b6:	5f 93       	push	r21
      b8:	6f 93       	push	r22
      ba:	7f 93       	push	r23
      bc:	8f 93       	push	r24
      be:	9f 93       	push	r25
      c0:	af 93       	push	r26
      c2:	bf 93       	push	r27
      c4:	ef 93       	push	r30
      c6:	ff 93       	push	r31
	// Envio de pacotes START e STOP para o módulo sensor
	usartStdio();
      c8:	8b e2       	ldi	r24, 0x2B	; 43
      ca:	91 e0       	ldi	r25, 0x01	; 1
      cc:	90 93 9d 01 	sts	0x019D, r25
      d0:	80 93 9c 01 	sts	0x019C, r24
      d4:	90 93 9b 01 	sts	0x019B, r25
      d8:	80 93 9a 01 	sts	0x019A, r24
      dc:	90 93 99 01 	sts	0x0199, r25
      e0:	80 93 98 01 	sts	0x0198, r24
	if(package.systemState == STATE_IDLE){
      e4:	90 91 55 01 	lds	r25, 0x0155
      e8:	89 2f       	mov	r24, r25
      ea:	80 7c       	andi	r24, 0xC0	; 192
      ec:	71 f4       	brne	.+28     	; 0x10a <__vector_1+0x64>
		printf("START\r");
      ee:	00 d0       	rcall	.+0      	; 0xf0 <__vector_1+0x4a>
      f0:	80 e0       	ldi	r24, 0x00	; 0
      f2:	91 e0       	ldi	r25, 0x01	; 1
      f4:	ed b7       	in	r30, 0x3d	; 61
      f6:	fe b7       	in	r31, 0x3e	; 62
      f8:	92 83       	std	Z+2, r25	; 0x02
      fa:	81 83       	std	Z+1, r24	; 0x01
      fc:	0e 94 51 07 	call	0xea2	; 0xea2 <printf>
		package.systemState = STATE_RX;
     100:	80 91 55 01 	lds	r24, 0x0155
     104:	8f 73       	andi	r24, 0x3F	; 63
     106:	80 64       	ori	r24, 0x40	; 64
     108:	0e c0       	rjmp	.+28     	; 0x126 <__vector_1+0x80>
	} else if(package.stopRequest == 0){
     10a:	95 fd       	sbrc	r25, 5
     10c:	10 c0       	rjmp	.+32     	; 0x12e <__vector_1+0x88>
		printf("STOP\r");
     10e:	00 d0       	rcall	.+0      	; 0x110 <__vector_1+0x6a>
     110:	87 e0       	ldi	r24, 0x07	; 7
     112:	91 e0       	ldi	r25, 0x01	; 1
     114:	ed b7       	in	r30, 0x3d	; 61
     116:	fe b7       	in	r31, 0x3e	; 62
     118:	92 83       	std	Z+2, r25	; 0x02
     11a:	81 83       	std	Z+1, r24	; 0x01
     11c:	0e 94 51 07 	call	0xea2	; 0xea2 <printf>
		package.stopRequest = 1;
     120:	80 91 55 01 	lds	r24, 0x0155
     124:	80 62       	ori	r24, 0x20	; 32
     126:	80 93 55 01 	sts	0x0155, r24
     12a:	0f 90       	pop	r0
     12c:	0f 90       	pop	r0
	}
}
     12e:	ff 91       	pop	r31
     130:	ef 91       	pop	r30
     132:	bf 91       	pop	r27
     134:	af 91       	pop	r26
     136:	9f 91       	pop	r25
     138:	8f 91       	pop	r24
     13a:	7f 91       	pop	r23
     13c:	6f 91       	pop	r22
     13e:	5f 91       	pop	r21
     140:	4f 91       	pop	r20
     142:	3f 91       	pop	r19
     144:	2f 91       	pop	r18
     146:	0f 90       	pop	r0
     148:	0f be       	out	0x3f, r0	; 63
     14a:	0f 90       	pop	r0
     14c:	1f 90       	pop	r1
     14e:	18 95       	reti

00000150 <main>:

package_t package;

// Main function
int main()
{
     150:	5f 92       	push	r5
     152:	6f 92       	push	r6
     154:	7f 92       	push	r7
     156:	8f 92       	push	r8
     158:	9f 92       	push	r9
     15a:	af 92       	push	r10
     15c:	bf 92       	push	r11
     15e:	cf 92       	push	r12
     160:	df 92       	push	r13
     162:	ef 92       	push	r14
     164:	ff 92       	push	r15
     166:	0f 93       	push	r16
     168:	1f 93       	push	r17
     16a:	cf 93       	push	r28
     16c:	df 93       	push	r29
	// Inicialização do controle de pacote
	package.index = 0;
     16e:	80 91 55 01 	lds	r24, 0x0155
	package.state = 0;
     172:	80 7e       	andi	r24, 0xE0	; 224
     174:	80 93 55 01 	sts	0x0155, r24
	package.stopRequest = 0;
     178:	80 91 55 01 	lds	r24, 0x0155
     17c:	8f 7d       	andi	r24, 0xDF	; 223
     17e:	80 93 55 01 	sts	0x0155, r24
	package.systemState = STATE_IDLE;
     182:	80 91 55 01 	lds	r24, 0x0155
     186:	8f 73       	andi	r24, 0x3F	; 63
     188:	80 93 55 01 	sts	0x0155, r24
	
	// Configuração do INT0
	int0SenseFallingEdge();
     18c:	80 91 69 00 	lds	r24, 0x0069
     190:	82 60       	ori	r24, 0x02	; 2
     192:	80 93 69 00 	sts	0x0069, r24
     196:	80 91 69 00 	lds	r24, 0x0069
     19a:	8e 7f       	andi	r24, 0xFE	; 254
     19c:	80 93 69 00 	sts	0x0069, r24
	int0PullUpEnable();
     1a0:	5a 9a       	sbi	0x0b, 2	; 11
	int0DDRConfigure();
     1a2:	52 98       	cbi	0x0a, 2	; 10
	int0ClearInterruptRequest();
     1a4:	e0 9a       	sbi	0x1c, 0	; 28
	int0ActivateInterrupt();
     1a6:	e8 9a       	sbi	0x1d, 0	; 29
	
	// Configuração da USART
	usart8DataBits();
     1a8:	20 91 8d 01 	lds	r18, 0x018D
     1ac:	27 70       	andi	r18, 0x07	; 7
	usartSingleStopBit();
     1ae:	30 91 8f 01 	lds	r19, 0x018F
     1b2:	3f 7e       	andi	r19, 0xEF	; 239
     1b4:	30 93 8f 01 	sts	0x018F, r19
	usartParityNone();
     1b8:	28 61       	ori	r18, 0x18	; 24
     1ba:	20 93 8d 01 	sts	0x018D, r18
	usartEnableReceiver();
     1be:	80 91 c1 00 	lds	r24, 0x00C1
     1c2:	80 61       	ori	r24, 0x10	; 16
     1c4:	80 93 c1 00 	sts	0x00C1, r24
     1c8:	90 91 8c 01 	lds	r25, 0x018C
     1cc:	89 2f       	mov	r24, r25
     1ce:	80 68       	ori	r24, 0x80	; 128
     1d0:	80 93 8c 01 	sts	0x018C, r24
	usartEnableTransmitter();
     1d4:	80 91 c1 00 	lds	r24, 0x00C1
     1d8:	88 60       	ori	r24, 0x08	; 8
     1da:	80 93 c1 00 	sts	0x00C1, r24
     1de:	90 6c       	ori	r25, 0xC0	; 192
	usartAsynchronousMode();
     1e0:	9c 7f       	andi	r25, 0xFC	; 252
     1e2:	90 93 8c 01 	sts	0x018C, r25
	usartActivateReceptionCompleteInterrupt();
     1e6:	80 91 c1 00 	lds	r24, 0x00C1
     1ea:	80 68       	ori	r24, 0x80	; 128
     1ec:	80 93 c1 00 	sts	0x00C1, r24
     1f0:	22 60       	ori	r18, 0x02	; 2
     1f2:	20 93 8d 01 	sts	0x018D, r18
	usartEnableReceiverBuffer();
     1f6:	30 62       	ori	r19, 0x20	; 32
     1f8:	30 93 8f 01 	sts	0x018F, r19
	usartStdio();
     1fc:	8b e2       	ldi	r24, 0x2B	; 43
     1fe:	91 e0       	ldi	r25, 0x01	; 1
     200:	90 93 9d 01 	sts	0x019D, r25
     204:	80 93 9c 01 	sts	0x019C, r24
     208:	90 93 9b 01 	sts	0x019B, r25
     20c:	80 93 9a 01 	sts	0x019A, r24
     210:	90 93 99 01 	sts	0x0199, r25
     214:	80 93 98 01 	sts	0x0198, r24
	
	usartInit(9600);
     218:	60 e8       	ldi	r22, 0x80	; 128
     21a:	75 e2       	ldi	r23, 0x25	; 37
     21c:	80 e0       	ldi	r24, 0x00	; 0
     21e:	90 e0       	ldi	r25, 0x00	; 0
     220:	0e 94 da 03 	call	0x7b4	; 0x7b4 <usartInit>
	
	// Configuração do LCD
	lcdInit();
     224:	0e 94 f6 05 	call	0xbec	; 0xbec <lcdInit>
	
	sei();
     228:	78 94       	sei
				}
				package.index++;
			}
			
			// Escrita dos valores no display de LCD
			lcdStdio();
     22a:	c9 e3       	ldi	r28, 0x39	; 57
     22c:	d1 e0       	ldi	r29, 0x01	; 1
			lcdCursorMoveFirstLine();
     22e:	14 e0       	ldi	r17, 0x04	; 4
     230:	51 2e       	mov	r5, r17
			printf("LM35: %u C\nTensao: %u.%02u V\n",	(uint16)(((uint32)lm35 * 110) / 1023),			\
     232:	bd e0       	ldi	r27, 0x0D	; 13
     234:	6b 2e       	mov	r6, r27
     236:	b1 e0       	ldi	r27, 0x01	; 1
     238:	7b 2e       	mov	r7, r27
	lcdInit();
	
	sei();
	
	while(1){
		switch(package.systemState){
     23a:	80 91 55 01 	lds	r24, 0x0155
     23e:	82 95       	swap	r24
     240:	86 95       	lsr	r24
     242:	86 95       	lsr	r24
     244:	83 70       	andi	r24, 0x03	; 3
     246:	90 e0       	ldi	r25, 0x00	; 0
     248:	81 30       	cpi	r24, 0x01	; 1
     24a:	91 05       	cpc	r25, r1
     24c:	29 f1       	breq	.+74     	; 0x298 <main+0x148>
     24e:	02 97       	sbiw	r24, 0x02	; 2
     250:	a1 f7       	brne	.-24     	; 0x23a <main+0xea>
     252:	27 c0       	rjmp	.+78     	; 0x2a2 <main+0x152>
		case STATE_IDLE:
			break;
		case STATE_RX:
			// Recepção de dados
			while(!usartIsReceiverBufferEmpty()){
				package.buffer[package.index] = usartGetDataFromReceiverBuffer();
     254:	00 91 55 01 	lds	r16, 0x0155
     258:	0f 70       	andi	r16, 0x0F	; 15
     25a:	10 e0       	ldi	r17, 0x00	; 0
     25c:	0e 94 63 05 	call	0xac6	; 0xac6 <usartGetDataFromReceiverBuffer>
     260:	06 5b       	subi	r16, 0xB6	; 182
     262:	1e 4f       	sbci	r17, 0xFE	; 254
     264:	f8 01       	movw	r30, r16
     266:	80 83       	st	Z, r24
				if(package.buffer[package.index] == '\r'){
     268:	90 91 55 01 	lds	r25, 0x0155
     26c:	29 2f       	mov	r18, r25
     26e:	2f 70       	andi	r18, 0x0F	; 15
     270:	e2 2f       	mov	r30, r18
     272:	f0 e0       	ldi	r31, 0x00	; 0
     274:	e6 5b       	subi	r30, 0xB6	; 182
     276:	fe 4f       	sbci	r31, 0xFE	; 254
     278:	80 81       	ld	r24, Z
     27a:	90 7f       	andi	r25, 0xF0	; 240
     27c:	8d 30       	cpi	r24, 0x0D	; 13
     27e:	39 f4       	brne	.+14     	; 0x28e <main+0x13e>
					package.index = 0;
     280:	90 93 55 01 	sts	0x0155, r25
					package.systemState = STATE_REFRESH;
     284:	80 91 55 01 	lds	r24, 0x0155
     288:	8f 73       	andi	r24, 0x3F	; 63
     28a:	80 68       	ori	r24, 0x80	; 128
     28c:	28 c0       	rjmp	.+80     	; 0x2de <main+0x18e>
					break;
				}
				package.index++;
     28e:	2f 5f       	subi	r18, 0xFF	; 255
     290:	2f 70       	andi	r18, 0x0F	; 15
     292:	92 2b       	or	r25, r18
     294:	90 93 55 01 	sts	0x0155, r25
		switch(package.systemState){
		case STATE_IDLE:
			break;
		case STATE_RX:
			// Recepção de dados
			while(!usartIsReceiverBufferEmpty()){
     298:	0e 94 87 05 	call	0xb0e	; 0xb0e <usartIsReceiverBufferEmpty>
     29c:	88 23       	and	r24, r24
     29e:	d1 f2       	breq	.-76     	; 0x254 <main+0x104>
     2a0:	cc cf       	rjmp	.-104    	; 0x23a <main+0xea>
				package.index++;
			}
			break;
		case STATE_REFRESH:
			// Checagem se há requisição de parada de comunicação
			if(package.stopRequest == 0){
     2a2:	80 91 55 01 	lds	r24, 0x0155
     2a6:	85 fd       	sbrc	r24, 5
     2a8:	0d c0       	rjmp	.+26     	; 0x2c4 <main+0x174>
				package.systemState = STATE_RX;
     2aa:	80 91 55 01 	lds	r24, 0x0155
     2ae:	8f 73       	andi	r24, 0x3F	; 63
     2b0:	80 64       	ori	r24, 0x40	; 64
     2b2:	80 93 55 01 	sts	0x0155, r24
     2b6:	80 91 55 01 	lds	r24, 0x0155
     2ba:	48 2f       	mov	r20, r24
     2bc:	42 95       	swap	r20
     2be:	41 70       	andi	r20, 0x01	; 1
     2c0:	58 2f       	mov	r21, r24
     2c2:	68 c0       	rjmp	.+208    	; 0x394 <main+0x244>
			} else {
				package.systemState = STATE_IDLE;
     2c4:	80 91 55 01 	lds	r24, 0x0155
     2c8:	8f 73       	andi	r24, 0x3F	; 63
     2ca:	80 93 55 01 	sts	0x0155, r24
				package.stopRequest = 0;
     2ce:	80 91 55 01 	lds	r24, 0x0155
     2d2:	8f 7d       	andi	r24, 0xDF	; 223
     2d4:	80 93 55 01 	sts	0x0155, r24
				package.index = 0;
     2d8:	80 91 55 01 	lds	r24, 0x0155
     2dc:	80 7f       	andi	r24, 0xF0	; 240
     2de:	80 93 55 01 	sts	0x0155, r24
     2e2:	ab cf       	rjmp	.-170    	; 0x23a <main+0xea>
				break;
			}
			
			// Tratamento de pacote
			while(package.buffer[package.index] != '\r'){
				switch(package.buffer[package.index]){
     2e4:	e0 35       	cpi	r30, 0x50	; 80
     2e6:	41 f0       	breq	.+16     	; 0x2f8 <main+0x1a8>
     2e8:	e4 35       	cpi	r30, 0x54	; 84
     2ea:	61 f4       	brne	.+24     	; 0x304 <main+0x1b4>
				case 'T':
					lm35 = 0;
     2ec:	10 92 57 01 	sts	0x0157, r1
     2f0:	10 92 56 01 	sts	0x0156, r1
     2f4:	40 e0       	ldi	r20, 0x00	; 0
     2f6:	4d c0       	rjmp	.+154    	; 0x392 <main+0x242>
					package.state = 0;
					break;
				case 'P':
					pothg = 0;
     2f8:	10 92 49 01 	sts	0x0149, r1
     2fc:	10 92 48 01 	sts	0x0148, r1
     300:	41 e0       	ldi	r20, 0x01	; 1
     302:	47 c0       	rjmp	.+142    	; 0x392 <main+0x242>
					package.state = 1;
					break;
				default:
					// Extração de dados numéricos do pacote recebido
					if(package.buffer[package.index] >= '0' && package.buffer[package.index] <= '9'){
     304:	8e 2f       	mov	r24, r30
     306:	80 53       	subi	r24, 0x30	; 48
     308:	8a 30       	cpi	r24, 0x0A	; 10
     30a:	08 f0       	brcs	.+2      	; 0x30e <main+0x1be>
     30c:	42 c0       	rjmp	.+132    	; 0x392 <main+0x242>
						switch(package.state){
     30e:	84 2f       	mov	r24, r20
     310:	90 e0       	ldi	r25, 0x00	; 0
     312:	00 97       	sbiw	r24, 0x00	; 0
     314:	19 f0       	breq	.+6      	; 0x31c <main+0x1cc>
     316:	01 97       	sbiw	r24, 0x01	; 1
     318:	e1 f5       	brne	.+120    	; 0x392 <main+0x242>
     31a:	1e c0       	rjmp	.+60     	; 0x358 <main+0x208>
						case 0:
							lm35 *= 10;
     31c:	80 91 56 01 	lds	r24, 0x0156
     320:	90 91 57 01 	lds	r25, 0x0157
     324:	9c 01       	movw	r18, r24
     326:	a3 e0       	ldi	r26, 0x03	; 3
     328:	22 0f       	add	r18, r18
     32a:	33 1f       	adc	r19, r19
     32c:	aa 95       	dec	r26
     32e:	e1 f7       	brne	.-8      	; 0x328 <main+0x1d8>
     330:	88 0f       	add	r24, r24
     332:	99 1f       	adc	r25, r25
     334:	28 0f       	add	r18, r24
     336:	39 1f       	adc	r19, r25
     338:	30 93 57 01 	sts	0x0157, r19
     33c:	20 93 56 01 	sts	0x0156, r18
							lm35 += package.buffer[package.index] - '0';
     340:	80 91 56 01 	lds	r24, 0x0156
     344:	90 91 57 01 	lds	r25, 0x0157
     348:	c0 97       	sbiw	r24, 0x30	; 48
     34a:	8e 0f       	add	r24, r30
     34c:	91 1d       	adc	r25, r1
     34e:	90 93 57 01 	sts	0x0157, r25
     352:	80 93 56 01 	sts	0x0156, r24
     356:	1d c0       	rjmp	.+58     	; 0x392 <main+0x242>
							break;
						case 1:
							pothg *= 10;
     358:	80 91 48 01 	lds	r24, 0x0148
     35c:	90 91 49 01 	lds	r25, 0x0149
     360:	9c 01       	movw	r18, r24
     362:	73 e0       	ldi	r23, 0x03	; 3
     364:	22 0f       	add	r18, r18
     366:	33 1f       	adc	r19, r19
     368:	7a 95       	dec	r23
     36a:	e1 f7       	brne	.-8      	; 0x364 <main+0x214>
     36c:	88 0f       	add	r24, r24
     36e:	99 1f       	adc	r25, r25
     370:	28 0f       	add	r18, r24
     372:	39 1f       	adc	r19, r25
     374:	30 93 49 01 	sts	0x0149, r19
     378:	20 93 48 01 	sts	0x0148, r18
							pothg += package.buffer[package.index] - '0';
     37c:	80 91 48 01 	lds	r24, 0x0148
     380:	90 91 49 01 	lds	r25, 0x0149
     384:	c0 97       	sbiw	r24, 0x30	; 48
     386:	8e 0f       	add	r24, r30
     388:	91 1d       	adc	r25, r1
     38a:	90 93 49 01 	sts	0x0149, r25
     38e:	80 93 48 01 	sts	0x0148, r24
     392:	5f 5f       	subi	r21, 0xFF	; 255
     394:	5f 70       	andi	r21, 0x0F	; 15
				package.index = 0;
				break;
			}
			
			// Tratamento de pacote
			while(package.buffer[package.index] != '\r'){
     396:	e5 2f       	mov	r30, r21
     398:	f0 e0       	ldi	r31, 0x00	; 0
     39a:	e6 5b       	subi	r30, 0xB6	; 182
     39c:	fe 4f       	sbci	r31, 0xFE	; 254
     39e:	e0 81       	ld	r30, Z
     3a0:	ed 30       	cpi	r30, 0x0D	; 13
     3a2:	09 f0       	breq	.+2      	; 0x3a6 <main+0x256>
     3a4:	9f cf       	rjmp	.-194    	; 0x2e4 <main+0x194>
     3a6:	41 70       	andi	r20, 0x01	; 1
     3a8:	42 95       	swap	r20
     3aa:	40 7f       	andi	r20, 0xF0	; 240
     3ac:	80 91 55 01 	lds	r24, 0x0155
     3b0:	80 7e       	andi	r24, 0xE0	; 224
     3b2:	5f 70       	andi	r21, 0x0F	; 15
     3b4:	84 2b       	or	r24, r20
     3b6:	85 2b       	or	r24, r21
     3b8:	80 93 55 01 	sts	0x0155, r24
				}
				package.index++;
			}
			
			// Escrita dos valores no display de LCD
			lcdStdio();
     3bc:	d0 93 9d 01 	sts	0x019D, r29
     3c0:	c0 93 9c 01 	sts	0x019C, r28
     3c4:	d0 93 9b 01 	sts	0x019B, r29
     3c8:	c0 93 9a 01 	sts	0x019A, r28
     3cc:	d0 93 99 01 	sts	0x0199, r29
     3d0:	c0 93 98 01 	sts	0x0198, r28
			lcdCursorMoveFirstLine();
     3d4:	50 92 96 01 	sts	0x0196, r5
     3d8:	80 e8       	ldi	r24, 0x80	; 128
     3da:	0e 94 cf 05 	call	0xb9e	; 0xb9e <lcdCommand>
			printf("LM35: %u C\nTensao: %u.%02u V\n",	(uint16)(((uint32)lm35 * 110) / 1023),			\
     3de:	60 91 56 01 	lds	r22, 0x0156
     3e2:	70 91 57 01 	lds	r23, 0x0157
     3e6:	e0 90 48 01 	lds	r14, 0x0148
     3ea:	f0 90 49 01 	lds	r15, 0x0149
     3ee:	a0 90 48 01 	lds	r10, 0x0148
     3f2:	b0 90 49 01 	lds	r11, 0x0149
     3f6:	8d b7       	in	r24, 0x3d	; 61
     3f8:	9e b7       	in	r25, 0x3e	; 62
     3fa:	08 97       	sbiw	r24, 0x08	; 8
     3fc:	0f b6       	in	r0, 0x3f	; 63
     3fe:	f8 94       	cli
     400:	9e bf       	out	0x3e, r25	; 62
     402:	0f be       	out	0x3f, r0	; 63
     404:	8d bf       	out	0x3d, r24	; 61
     406:	8d b6       	in	r8, 0x3d	; 61
     408:	9e b6       	in	r9, 0x3e	; 62
     40a:	08 94       	sec
     40c:	81 1c       	adc	r8, r1
     40e:	91 1c       	adc	r9, r1
     410:	ed b7       	in	r30, 0x3d	; 61
     412:	fe b7       	in	r31, 0x3e	; 62
     414:	72 82       	std	Z+2, r7	; 0x02
     416:	61 82       	std	Z+1, r6	; 0x01
     418:	80 e0       	ldi	r24, 0x00	; 0
     41a:	90 e0       	ldi	r25, 0x00	; 0
     41c:	2e e6       	ldi	r18, 0x6E	; 110
     41e:	30 e0       	ldi	r19, 0x00	; 0
     420:	40 e0       	ldi	r20, 0x00	; 0
     422:	50 e0       	ldi	r21, 0x00	; 0
     424:	0e 94 fc 06 	call	0xdf8	; 0xdf8 <__mulsi3>
     428:	2f ef       	ldi	r18, 0xFF	; 255
     42a:	33 e0       	ldi	r19, 0x03	; 3
     42c:	40 e0       	ldi	r20, 0x00	; 0
     42e:	50 e0       	ldi	r21, 0x00	; 0
     430:	0e 94 2f 07 	call	0xe5e	; 0xe5e <__udivmodsi4>
     434:	f4 01       	movw	r30, r8
     436:	33 83       	std	Z+3, r19	; 0x03
     438:	22 83       	std	Z+2, r18	; 0x02
     43a:	00 e0       	ldi	r16, 0x00	; 0
     43c:	10 e0       	ldi	r17, 0x00	; 0
     43e:	c8 01       	movw	r24, r16
     440:	b7 01       	movw	r22, r14
     442:	24 ef       	ldi	r18, 0xF4	; 244
     444:	31 e0       	ldi	r19, 0x01	; 1
     446:	40 e0       	ldi	r20, 0x00	; 0
     448:	50 e0       	ldi	r21, 0x00	; 0
     44a:	0e 94 fc 06 	call	0xdf8	; 0xdf8 <__mulsi3>
     44e:	2c e9       	ldi	r18, 0x9C	; 156
     450:	3f e8       	ldi	r19, 0x8F	; 143
     452:	41 e0       	ldi	r20, 0x01	; 1
     454:	50 e0       	ldi	r21, 0x00	; 0
     456:	0e 94 2f 07 	call	0xe5e	; 0xe5e <__udivmodsi4>
     45a:	f4 01       	movw	r30, r8
     45c:	35 83       	std	Z+5, r19	; 0x05
     45e:	24 83       	std	Z+4, r18	; 0x04
     460:	cc 24       	eor	r12, r12
     462:	dd 24       	eor	r13, r13
     464:	c6 01       	movw	r24, r12
     466:	b5 01       	movw	r22, r10
     468:	24 ef       	ldi	r18, 0xF4	; 244
     46a:	31 e0       	ldi	r19, 0x01	; 1
     46c:	40 e0       	ldi	r20, 0x00	; 0
     46e:	50 e0       	ldi	r21, 0x00	; 0
     470:	0e 94 fc 06 	call	0xdf8	; 0xdf8 <__mulsi3>
     474:	2f ef       	ldi	r18, 0xFF	; 255
     476:	33 e0       	ldi	r19, 0x03	; 3
     478:	40 e0       	ldi	r20, 0x00	; 0
     47a:	50 e0       	ldi	r21, 0x00	; 0
     47c:	0e 94 2f 07 	call	0xe5e	; 0xe5e <__udivmodsi4>
     480:	da 01       	movw	r26, r20
     482:	c9 01       	movw	r24, r18
     484:	64 e6       	ldi	r22, 0x64	; 100
     486:	70 e0       	ldi	r23, 0x00	; 0
     488:	0e 94 1b 07 	call	0xe36	; 0xe36 <__udivmodhi4>
     48c:	f4 01       	movw	r30, r8
     48e:	97 83       	std	Z+7, r25	; 0x07
     490:	86 83       	std	Z+6, r24	; 0x06
     492:	0e 94 51 07 	call	0xea2	; 0xea2 <printf>
														(uint16)((((uint32)pothg * 500) / 1023) / 100), \
														(uint16)(((uint32)pothg * 500) / 1023) % 100);
														
			
			package.index = 0;
     496:	80 91 55 01 	lds	r24, 0x0155
     49a:	80 7f       	andi	r24, 0xF0	; 240
     49c:	80 93 55 01 	sts	0x0155, r24
     4a0:	8d b7       	in	r24, 0x3d	; 61
     4a2:	9e b7       	in	r25, 0x3e	; 62
     4a4:	08 96       	adiw	r24, 0x08	; 8
     4a6:	0f b6       	in	r0, 0x3f	; 63
     4a8:	f8 94       	cli
     4aa:	9e bf       	out	0x3e, r25	; 62
     4ac:	0f be       	out	0x3f, r0	; 63
     4ae:	8d bf       	out	0x3d, r24	; 61
     4b0:	c4 ce       	rjmp	.-632    	; 0x23a <main+0xea>

000004b2 <__vector_18>:
// Project definitions
#define STATE_IDLE		0
#define STATE_RX		1
#define STATE_REFRESH	2

USART_RECEIVER_BUFFER_FUNCTION_HANDLER
     4b2:	1f 92       	push	r1
     4b4:	0f 92       	push	r0
     4b6:	0f b6       	in	r0, 0x3f	; 63
     4b8:	0f 92       	push	r0
     4ba:	11 24       	eor	r1, r1
     4bc:	2f 93       	push	r18
     4be:	3f 93       	push	r19
     4c0:	4f 93       	push	r20
     4c2:	5f 93       	push	r21
     4c4:	6f 93       	push	r22
     4c6:	7f 93       	push	r23
     4c8:	8f 93       	push	r24
     4ca:	9f 93       	push	r25
     4cc:	af 93       	push	r26
     4ce:	bf 93       	push	r27
     4d0:	ef 93       	push	r30
     4d2:	ff 93       	push	r31
     4d4:	0e 94 e0 04 	call	0x9c0	; 0x9c0 <usartReceive>
     4d8:	0e 94 34 05 	call	0xa68	; 0xa68 <usartAddDataToReceiverBuffer>
     4dc:	ff 91       	pop	r31
     4de:	ef 91       	pop	r30
     4e0:	bf 91       	pop	r27
     4e2:	af 91       	pop	r26
     4e4:	9f 91       	pop	r25
     4e6:	8f 91       	pop	r24
     4e8:	7f 91       	pop	r23
     4ea:	6f 91       	pop	r22
     4ec:	5f 91       	pop	r21
     4ee:	4f 91       	pop	r20
     4f0:	3f 91       	pop	r19
     4f2:	2f 91       	pop	r18
     4f4:	0f 90       	pop	r0
     4f6:	0f be       	out	0x3f, r0	; 63
     4f8:	0f 90       	pop	r0
     4fa:	1f 90       	pop	r1
     4fc:	18 95       	reti

000004fe <eepromWrite>:
 * Writes a byte in the specified address in the EEPROM
 * -------------------------------------------------------------------------- */

void eepromWrite(uint8 data, uint16 address)
{
	waitUntilBitIsClear(EECR, EEPE);
     4fe:	f9 99       	sbic	0x1f, 1	; 31
     500:	fe cf       	rjmp	.-4      	; 0x4fe <eepromWrite>
	EEAR = (address & 0x01FF);
     502:	71 70       	andi	r23, 0x01	; 1
     504:	72 bd       	out	0x22, r23	; 34
     506:	61 bd       	out	0x21, r22	; 33
	EEDR = data;
     508:	80 bd       	out	0x20, r24	; 32
	setBit(EECR, EEMPE);
     50a:	fa 9a       	sbi	0x1f, 2	; 31
	setBit(EECR, EEPE);
     50c:	f9 9a       	sbi	0x1f, 1	; 31
	return;
}
     50e:	08 95       	ret

00000510 <eepromRead>:
 * Reads a byte from the specified address in the EEPROM
 * -------------------------------------------------------------------------- */

uint8 eepromRead(uint16 address)
{
	waitUntilBitIsClear(EECR, EEPE);
     510:	f9 99       	sbic	0x1f, 1	; 31
     512:	fe cf       	rjmp	.-4      	; 0x510 <eepromRead>
	EEAR = (address & 0x01FF);
     514:	91 70       	andi	r25, 0x01	; 1
     516:	92 bd       	out	0x22, r25	; 34
     518:	81 bd       	out	0x21, r24	; 33
	setBit(EECR, EERE);
     51a:	f8 9a       	sbi	0x1f, 0	; 31
	return EEDR;
     51c:	80 b5       	in	r24, 0x20	; 32
}
     51e:	08 95       	ret

00000520 <timer1SetCounterValue>:

void timer1SetCounterValue(uint16 value)
{
	uint8 sreg;

	sreg = SREG;
     520:	2f b7       	in	r18, 0x3f	; 63
	cli();
     522:	f8 94       	cli
	TCNT1 = value;
     524:	90 93 85 00 	sts	0x0085, r25
     528:	80 93 84 00 	sts	0x0084, r24
	SREG = sreg;
     52c:	2f bf       	out	0x3f, r18	; 63

	return;
}
     52e:	08 95       	ret

00000530 <timer1GetCounterValue>:
uint16 timer1GetCounterValue(void)
{
	uint8 sreg;
	uint16 aux;

	sreg = SREG;
     530:	8f b7       	in	r24, 0x3f	; 63
	cli();
     532:	f8 94       	cli
	aux = TCNT1;
     534:	20 91 84 00 	lds	r18, 0x0084
     538:	30 91 85 00 	lds	r19, 0x0085
	SREG = sreg;
     53c:	8f bf       	out	0x3f, r24	; 63

	return aux;
}
     53e:	c9 01       	movw	r24, r18
     540:	08 95       	ret

00000542 <timer1SetCompareAValue>:

void timer1SetCompareAValue(uint16 value)
{
	uint8 sreg;

	sreg = SREG;
     542:	2f b7       	in	r18, 0x3f	; 63
	cli();
     544:	f8 94       	cli
	OCR1A = value;
     546:	90 93 89 00 	sts	0x0089, r25
     54a:	80 93 88 00 	sts	0x0088, r24
	SREG = sreg;
     54e:	2f bf       	out	0x3f, r18	; 63

	return;
}
     550:	08 95       	ret

00000552 <timer1GetCompareAValue>:
uint16 timer1GetCompareAValue(void)
{
	uint8 sreg;
	uint16 aux;

	sreg = SREG;
     552:	8f b7       	in	r24, 0x3f	; 63
	cli();
     554:	f8 94       	cli
	aux = OCR1A;
     556:	20 91 88 00 	lds	r18, 0x0088
     55a:	30 91 89 00 	lds	r19, 0x0089
	SREG = sreg;
     55e:	8f bf       	out	0x3f, r24	; 63

	return aux;
}
     560:	c9 01       	movw	r24, r18
     562:	08 95       	ret

00000564 <timer1SetCompareBValue>:

void timer1SetCompareBValue(uint16 value)
{
	uint8 sreg;

	sreg = SREG;
     564:	2f b7       	in	r18, 0x3f	; 63
	cli();
     566:	f8 94       	cli
	OCR1B = value;
     568:	90 93 8b 00 	sts	0x008B, r25
     56c:	80 93 8a 00 	sts	0x008A, r24
	SREG = sreg;
     570:	2f bf       	out	0x3f, r18	; 63

	return;
}
     572:	08 95       	ret

00000574 <timer1GetCompareBValue>:
uint16 timer1GetCompareBValue(void)
{
	uint8 sreg;
	uint16 aux;

	sreg = SREG;
     574:	8f b7       	in	r24, 0x3f	; 63
	cli();
     576:	f8 94       	cli
	aux = OCR1B;
     578:	20 91 8a 00 	lds	r18, 0x008A
     57c:	30 91 8b 00 	lds	r19, 0x008B
	SREG = sreg;
     580:	8f bf       	out	0x3f, r24	; 63

	return aux;
}
     582:	c9 01       	movw	r24, r18
     584:	08 95       	ret

00000586 <timer1SetInputCaptureValue>:

void timer1SetInputCaptureValue(uint16 value)
{
	uint8 sreg;

	sreg = SREG;
     586:	2f b7       	in	r18, 0x3f	; 63
	cli();
     588:	f8 94       	cli
	ICR1 = value;
     58a:	90 93 87 00 	sts	0x0087, r25
     58e:	80 93 86 00 	sts	0x0086, r24
	SREG = sreg;
     592:	2f bf       	out	0x3f, r18	; 63

	return;
}
     594:	08 95       	ret

00000596 <timer1GetInputCaptureValue>:
uint16 timer1GetInputCaptureValue(void)
{
	uint8 sreg;
	uint16 aux;

	sreg = SREG;
     596:	8f b7       	in	r24, 0x3f	; 63
	cli();
     598:	f8 94       	cli
	aux = ICR1;
     59a:	20 91 86 00 	lds	r18, 0x0086
     59e:	30 91 87 00 	lds	r19, 0x0087
	SREG = sreg;
     5a2:	8f bf       	out	0x3f, r24	; 63

	return aux;
}
     5a4:	c9 01       	movw	r24, r18
     5a6:	08 95       	ret

000005a8 <spiInit>:
 * Configures the SPI controller
 * -------------------------------------------------------------------------- */

void spiInit(void)
{
	if(spiConfiguration.masterSlave){
     5a8:	80 91 58 01 	lds	r24, 0x0158
     5ac:	81 ff       	sbrs	r24, 1
     5ae:	04 c0       	rjmp	.+8      	; 0x5b8 <spiInit+0x10>
		setBit(SPI_DDR, SPI_MOSI);
     5b0:	23 9a       	sbi	0x04, 3	; 4
		setBit(SPI_DDR, SPI_SCK);
     5b2:	25 9a       	sbi	0x04, 5	; 4
		clrBit(SPI_DDR, SPI_MISO);
     5b4:	24 98       	cbi	0x04, 4	; 4
     5b6:	03 c0       	rjmp	.+6      	; 0x5be <spiInit+0x16>
	}else{
		clrBit(SPI_DDR, SPI_MOSI);
     5b8:	23 98       	cbi	0x04, 3	; 4
		clrBit(SPI_DDR, SPI_SCK);
     5ba:	25 98       	cbi	0x04, 5	; 4
		setBit(SPI_DDR, SPI_MISO);
     5bc:	24 9a       	sbi	0x04, 4	; 4
	}
	if(spiConfiguration.doubleSpeed)
     5be:	80 91 59 01 	lds	r24, 0x0159
     5c2:	81 ff       	sbrs	r24, 1
     5c4:	03 c0       	rjmp	.+6      	; 0x5cc <spiInit+0x24>
		setBit(SPSR, SPI2X);
     5c6:	8d b5       	in	r24, 0x2d	; 45
     5c8:	81 60       	ori	r24, 0x01	; 1
     5ca:	02 c0       	rjmp	.+4      	; 0x5d0 <spiInit+0x28>
	else
		clrBit(SPSR, SPI2X);
     5cc:	8d b5       	in	r24, 0x2d	; 45
     5ce:	8e 7f       	andi	r24, 0xFE	; 254
     5d0:	8d bd       	out	0x2d, r24	; 45
	SPCR =	(spiConfiguration.interruptEnabled << SPIE) | 
     5d2:	90 91 58 01 	lds	r25, 0x0158
     5d6:	29 2f       	mov	r18, r25
     5d8:	26 95       	lsr	r18
     5da:	26 95       	lsr	r18
     5dc:	27 95       	ror	r18
     5de:	22 27       	eor	r18, r18
     5e0:	27 95       	ror	r18
     5e2:	89 2f       	mov	r24, r25
     5e4:	81 70       	andi	r24, 0x01	; 1
     5e6:	82 95       	swap	r24
     5e8:	88 0f       	add	r24, r24
     5ea:	88 0f       	add	r24, r24
     5ec:	80 7c       	andi	r24, 0xC0	; 192
     5ee:	82 2b       	or	r24, r18
     5f0:	29 2f       	mov	r18, r25
     5f2:	22 95       	swap	r18
     5f4:	26 95       	lsr	r18
     5f6:	26 95       	lsr	r18
     5f8:	23 70       	andi	r18, 0x03	; 3
     5fa:	82 2b       	or	r24, r18
     5fc:	29 2f       	mov	r18, r25
     5fe:	22 0f       	add	r18, r18
     600:	22 0f       	add	r18, r18
     602:	20 72       	andi	r18, 0x20	; 32
     604:	28 2b       	or	r18, r24
     606:	89 2f       	mov	r24, r25
     608:	88 0f       	add	r24, r24
     60a:	88 0f       	add	r24, r24
     60c:	88 0f       	add	r24, r24
     60e:	80 71       	andi	r24, 0x10	; 16
     610:	82 2b       	or	r24, r18
     612:	96 95       	lsr	r25
     614:	29 2f       	mov	r18, r25
     616:	28 70       	andi	r18, 0x08	; 8
     618:	28 2b       	or	r18, r24
     61a:	96 95       	lsr	r25
     61c:	96 95       	lsr	r25
     61e:	94 70       	andi	r25, 0x04	; 4
     620:	92 2b       	or	r25, r18
     622:	9c bd       	out	0x2c, r25	; 44
			(spiConfiguration.sckIdleValue << CPOL) | 
			(spiConfiguration.leadingTrailingEdge << CPHA) | 
			(spiConfiguration.clockPrescaler & 0x03);

	return;
}
     624:	08 95       	ret

00000626 <spiMasterTransmit>:
 * Transmit data at the SPI bus in master mode
 * -------------------------------------------------------------------------- */

uint8 spiMasterTransmit(uint8 data)
{
	SPDR = data;
     626:	8e bd       	out	0x2e, r24	; 46
	waitUntilBitIsClear(SPSR, SPIF);
     628:	0d b4       	in	r0, 0x2d	; 45
     62a:	07 fc       	sbrc	r0, 7
     62c:	fd cf       	rjmp	.-6      	; 0x628 <spiMasterTransmit+0x2>
	return SPDR;
     62e:	8e b5       	in	r24, 0x2e	; 46
}
     630:	08 95       	ret

00000632 <spiSlaveTransmit>:
 * Receives data from the SPI bus
 * -------------------------------------------------------------------------- */

uint8 spiSlaveTransmit(void)
{
	waitUntilBitIsClear(SPSR, SPIF);
     632:	0d b4       	in	r0, 0x2d	; 45
     634:	07 fc       	sbrc	r0, 7
     636:	fd cf       	rjmp	.-6      	; 0x632 <spiSlaveTransmit>
	return SPDR;
     638:	8e b5       	in	r24, 0x2e	; 46
}
     63a:	08 95       	ret

0000063c <adcGetConfiguration>:
/* -----------------------------------------------------------------------------
 * Get the current ADC configuration
 * -------------------------------------------------------------------------- */

adcConfiguration_t adcGetConfiguration(void)
{
     63c:	df 93       	push	r29
     63e:	cf 93       	push	r28
     640:	00 d0       	rcall	.+0      	; 0x642 <adcGetConfiguration+0x6>
     642:	0f 92       	push	r0
     644:	cd b7       	in	r28, 0x3d	; 61
     646:	de b7       	in	r29, 0x3e	; 62
	return adcConfiguration;
     648:	de 01       	movw	r26, r28
     64a:	11 96       	adiw	r26, 0x01	; 1
     64c:	e0 e9       	ldi	r30, 0x90	; 144
     64e:	f1 e0       	ldi	r31, 0x01	; 1
     650:	83 e0       	ldi	r24, 0x03	; 3
     652:	01 90       	ld	r0, Z+
     654:	0d 92       	st	X+, r0
     656:	81 50       	subi	r24, 0x01	; 1
     658:	e1 f7       	brne	.-8      	; 0x652 <adcGetConfiguration+0x16>
     65a:	69 81       	ldd	r22, Y+1	; 0x01
     65c:	7a 81       	ldd	r23, Y+2	; 0x02
}
     65e:	8b 81       	ldd	r24, Y+3	; 0x03
     660:	90 e0       	ldi	r25, 0x00	; 0
     662:	0f 90       	pop	r0
     664:	0f 90       	pop	r0
     666:	0f 90       	pop	r0
     668:	cf 91       	pop	r28
     66a:	df 91       	pop	r29
     66c:	08 95       	ret

0000066e <adcLoadConfiguration>:
/* -----------------------------------------------------------------------------
 * Load an ADC configuration
 * -------------------------------------------------------------------------- */

void adcLoadConfiguration(adcConfiguration_t config)
{
     66e:	cf 92       	push	r12
     670:	df 92       	push	r13
     672:	ef 92       	push	r14
     674:	ff 92       	push	r15
     676:	0f 93       	push	r16
     678:	1f 93       	push	r17
     67a:	df 93       	push	r29
     67c:	cf 93       	push	r28
     67e:	00 d0       	rcall	.+0      	; 0x680 <adcLoadConfiguration+0x12>
     680:	0f 92       	push	r0
     682:	cd b7       	in	r28, 0x3d	; 61
     684:	de b7       	in	r29, 0x3e	; 62
     686:	33 e0       	ldi	r19, 0x03	; 3
     688:	d3 2e       	mov	r13, r19
     68a:	d6 22       	and	r13, r22
     68c:	47 2f       	mov	r20, r23
     68e:	46 95       	lsr	r20
     690:	41 70       	andi	r20, 0x01	; 1
     692:	18 2f       	mov	r17, r24
     694:	12 95       	swap	r17
     696:	11 70       	andi	r17, 0x01	; 1
     698:	56 2f       	mov	r21, r22
     69a:	52 95       	swap	r21
     69c:	56 95       	lsr	r21
     69e:	51 70       	andi	r21, 0x01	; 1
     6a0:	08 2f       	mov	r16, r24
     6a2:	02 95       	swap	r16
     6a4:	06 95       	lsr	r16
     6a6:	01 70       	andi	r16, 0x01	; 1
     6a8:	a8 2f       	mov	r26, r24
     6aa:	a2 95       	swap	r26
     6ac:	a6 95       	lsr	r26
     6ae:	a6 95       	lsr	r26
     6b0:	a1 70       	andi	r26, 0x01	; 1
     6b2:	96 2f       	mov	r25, r22
     6b4:	92 95       	swap	r25
     6b6:	96 95       	lsr	r25
     6b8:	96 95       	lsr	r25
     6ba:	93 70       	andi	r25, 0x03	; 3
     6bc:	ff 24       	eor	r15, r15
     6be:	f3 94       	inc	r15
     6c0:	f7 22       	and	r15, r23
     6c2:	ff 0c       	add	r15, r15
     6c4:	ff 0c       	add	r15, r15
     6c6:	f9 2a       	or	r15, r25
     6c8:	97 2f       	mov	r25, r23
     6ca:	92 95       	swap	r25
     6cc:	96 95       	lsr	r25
     6ce:	96 95       	lsr	r25
     6d0:	93 70       	andi	r25, 0x03	; 3
     6d2:	b8 2f       	mov	r27, r24
     6d4:	bf 70       	andi	r27, 0x0F	; 15
     6d6:	bb 0f       	add	r27, r27
     6d8:	bb 0f       	add	r27, r27
     6da:	b9 2b       	or	r27, r25
	adcConfiguration = config;
     6dc:	80 78       	andi	r24, 0x80	; 128
     6de:	90 91 92 01 	lds	r25, 0x0192
     6e2:	90 77       	andi	r25, 0x70	; 112
     6e4:	e2 e9       	ldi	r30, 0x92	; 146
     6e6:	f1 e0       	ldi	r31, 0x01	; 1
     6e8:	3b 2f       	mov	r19, r27
     6ea:	32 95       	swap	r19
     6ec:	33 0f       	add	r19, r19
     6ee:	33 0f       	add	r19, r19
     6f0:	30 7c       	andi	r19, 0xC0	; 192
     6f2:	22 91       	ld	r18, -Z
     6f4:	2b 2f       	mov	r18, r27
     6f6:	26 95       	lsr	r18
     6f8:	26 95       	lsr	r18
     6fa:	98 2b       	or	r25, r24
     6fc:	92 2b       	or	r25, r18
     6fe:	ef 2c       	mov	r14, r15
     700:	e2 94       	swap	r14
     702:	ee 0c       	add	r14, r14
     704:	ee 0c       	add	r14, r14
     706:	20 ec       	ldi	r18, 0xC0	; 192
     708:	e2 22       	and	r14, r18
     70a:	cf 2c       	mov	r12, r15
     70c:	c6 94       	lsr	r12
     70e:	c6 94       	lsr	r12
     710:	a2 95       	swap	r26
     712:	aa 0f       	add	r26, r26
     714:	aa 0f       	add	r26, r26
     716:	a0 7c       	andi	r26, 0xC0	; 192
     718:	9f 79       	andi	r25, 0x9F	; 159
/* -----------------------------------------------------------------------------
 * Load an ADC configuration
 * -------------------------------------------------------------------------- */

void adcLoadConfiguration(adcConfiguration_t config)
{
     71a:	66 95       	lsr	r22
     71c:	66 95       	lsr	r22
	adcConfiguration = config;
     71e:	67 70       	andi	r22, 0x07	; 7
     720:	86 2f       	mov	r24, r22
     722:	88 0f       	add	r24, r24
     724:	88 0f       	add	r24, r24
     726:	20 2f       	mov	r18, r16
     728:	22 95       	swap	r18
     72a:	22 0f       	add	r18, r18
     72c:	20 7e       	andi	r18, 0xE0	; 224
     72e:	9a 2b       	or	r25, r26
     730:	92 2b       	or	r25, r18
     732:	52 95       	swap	r21
     734:	55 0f       	add	r21, r21
     736:	50 7e       	andi	r21, 0xE0	; 224
     738:	8e 29       	or	r24, r14
     73a:	12 95       	swap	r17
     73c:	10 7f       	andi	r17, 0xF0	; 240
     73e:	9f 7e       	andi	r25, 0xEF	; 239
     740:	91 2b       	or	r25, r17
     742:	90 93 92 01 	sts	0x0192, r25
/* -----------------------------------------------------------------------------
 * Load an ADC configuration
 * -------------------------------------------------------------------------- */

void adcLoadConfiguration(adcConfiguration_t config)
{
     746:	76 95       	lsr	r23
     748:	76 95       	lsr	r23
	adcConfiguration = config;
     74a:	7f 70       	andi	r23, 0x0F	; 15
     74c:	97 2f       	mov	r25, r23
     74e:	99 0f       	add	r25, r25
     750:	99 0f       	add	r25, r25
     752:	3c 29       	or	r19, r12
     754:	44 0f       	add	r20, r20
     756:	39 2b       	or	r19, r25
     758:	34 2b       	or	r19, r20
     75a:	30 83       	st	Z, r19
     75c:	85 2b       	or	r24, r21
     75e:	8d 29       	or	r24, r13
     760:	80 93 90 01 	sts	0x0190, r24

	ADMUX =	((config.reference & 0x03) << 6) | 
     764:	d2 94       	swap	r13
     766:	dd 0c       	add	r13, r13
     768:	dd 0c       	add	r13, r13
     76a:	80 ec       	ldi	r24, 0xC0	; 192
     76c:	d8 22       	and	r13, r24
     76e:	42 95       	swap	r20
     770:	40 7f       	andi	r20, 0xF0	; 240
     772:	4d 29       	or	r20, r13
     774:	47 2b       	or	r20, r23
     776:	40 93 7c 00 	sts	0x007C, r20
			(config.leftAdjust << 5) | 
			(config.channel & 0x0F);
	ADCSRA =	(config.enabled << 7) |
     77a:	11 0f       	add	r17, r17
     77c:	11 0f       	add	r17, r17
     77e:	11 0f       	add	r17, r17
     780:	51 2b       	or	r21, r17
     782:	56 2b       	or	r21, r22
     784:	00 0f       	add	r16, r16
     786:	00 0f       	add	r16, r16
     788:	00 0f       	add	r16, r16
     78a:	05 2b       	or	r16, r21
     78c:	00 93 7a 00 	sts	0x007A, r16
				(config.automaticMode << 5) |
				(config.interruptEnabled << 3) |
				(config.clockPrescaller & 0x07);
	ADCSRB =	(config.analogComparator << 6) |
     790:	af 29       	or	r26, r15
     792:	a0 93 7b 00 	sts	0x007B, r26
				(config.triggerSource & 0x07);
	DIDR0 =	config.digitalDisabled & 0x3F;
     796:	bf 73       	andi	r27, 0x3F	; 63
     798:	b0 93 7e 00 	sts	0x007E, r27
	return;
}
     79c:	0f 90       	pop	r0
     79e:	0f 90       	pop	r0
     7a0:	0f 90       	pop	r0
     7a2:	cf 91       	pop	r28
     7a4:	df 91       	pop	r29
     7a6:	1f 91       	pop	r17
     7a8:	0f 91       	pop	r16
     7aa:	ff 90       	pop	r15
     7ac:	ef 90       	pop	r14
     7ae:	df 90       	pop	r13
     7b0:	cf 90       	pop	r12
     7b2:	08 95       	ret

000007b4 <usartInit>:
/* -----------------------------------------------------------------------------
 * Configures the USART controller
 * -------------------------------------------------------------------------- */

void usartInit(uint32 baudRate)
{
     7b4:	9b 01       	movw	r18, r22
     7b6:	ac 01       	movw	r20, r24
	uint64 aux64;

	// Clear errors
	UCSR0A &= 0xE3;
     7b8:	80 91 c0 00 	lds	r24, 0x00C0
     7bc:	83 7e       	andi	r24, 0xE3	; 227
     7be:	80 93 c0 00 	sts	0x00C0, r24
	usartConfiguration.frameError = 0;
     7c2:	60 91 8c 01 	lds	r22, 0x018C
	usartConfiguration.bufferOverflowError = 0;
	usartConfiguration.parityError = 0;
     7c6:	86 2f       	mov	r24, r22
     7c8:	87 7c       	andi	r24, 0xC7	; 199
     7ca:	80 93 8c 01 	sts	0x018C, r24

	// USART configuration
	switch(usartConfiguration.mode){
     7ce:	86 2f       	mov	r24, r22
     7d0:	83 70       	andi	r24, 0x03	; 3
     7d2:	90 e0       	ldi	r25, 0x00	; 0
     7d4:	81 30       	cpi	r24, 0x01	; 1
     7d6:	91 05       	cpc	r25, r1
     7d8:	31 f1       	breq	.+76     	; 0x826 <usartInit+0x72>
     7da:	82 30       	cpi	r24, 0x02	; 2
     7dc:	91 05       	cpc	r25, r1
     7de:	1c f4       	brge	.+6      	; 0x7e6 <usartInit+0x32>
     7e0:	89 2b       	or	r24, r25
     7e2:	41 f0       	breq	.+16     	; 0x7f4 <usartInit+0x40>
     7e4:	80 c0       	rjmp	.+256    	; 0x8e6 <usartInit+0x132>
     7e6:	82 30       	cpi	r24, 0x02	; 2
     7e8:	91 05       	cpc	r25, r1
     7ea:	b1 f1       	breq	.+108    	; 0x858 <usartInit+0xa4>
     7ec:	03 97       	sbiw	r24, 0x03	; 3
     7ee:	09 f0       	breq	.+2      	; 0x7f2 <usartInit+0x3e>
     7f0:	7a c0       	rjmp	.+244    	; 0x8e6 <usartInit+0x132>
     7f2:	4d c0       	rjmp	.+154    	; 0x88e <usartInit+0xda>
	case 0:
		clrBit(UCSR0A, U2X0);			// Normal speed
     7f4:	80 91 c0 00 	lds	r24, 0x00C0
     7f8:	8d 7f       	andi	r24, 0xFD	; 253
     7fa:	80 93 c0 00 	sts	0x00C0, r24
		clrBit(UCSR0C, UCPOL0);			// Write zero in asynchronous mode
     7fe:	80 91 c2 00 	lds	r24, 0x00C2
     802:	8e 7f       	andi	r24, 0xFE	; 254
     804:	80 93 c2 00 	sts	0x00C2, r24
		clrBit(UCSR0C, UMSEL01);		// Asynchronous mode
     808:	80 91 c2 00 	lds	r24, 0x00C2
     80c:	8f 77       	andi	r24, 0x7F	; 127
     80e:	80 93 c2 00 	sts	0x00C2, r24
		clrBit(UCSR0C, UMSEL00);		// Asynchronous mode
     812:	80 91 c2 00 	lds	r24, 0x00C2
     816:	8f 7b       	andi	r24, 0xBF	; 191
     818:	80 93 c2 00 	sts	0x00C2, r24
		aux64 = F_CPU / 16 / baudRate;
		usartConfiguration.ubrr = (uint16)(aux64 - 1);
     81c:	60 e4       	ldi	r22, 0x40	; 64
     81e:	72 e4       	ldi	r23, 0x42	; 66
     820:	8f e0       	ldi	r24, 0x0F	; 15
     822:	90 e0       	ldi	r25, 0x00	; 0
     824:	52 c0       	rjmp	.+164    	; 0x8ca <usartInit+0x116>
		break;
	case 1:
		setBit(UCSR0A, U2X0);			// Double speed
     826:	80 91 c0 00 	lds	r24, 0x00C0
     82a:	82 60       	ori	r24, 0x02	; 2
     82c:	80 93 c0 00 	sts	0x00C0, r24
		clrBit(UCSR0C, UCPOL0);			// Write zero in asynchronous mode
     830:	80 91 c2 00 	lds	r24, 0x00C2
     834:	8e 7f       	andi	r24, 0xFE	; 254
     836:	80 93 c2 00 	sts	0x00C2, r24
		clrBit(UCSR0C, UMSEL01);		// Asynchronous mode
     83a:	80 91 c2 00 	lds	r24, 0x00C2
     83e:	8f 77       	andi	r24, 0x7F	; 127
     840:	80 93 c2 00 	sts	0x00C2, r24
		clrBit(UCSR0C, UMSEL00);		// Asynchronous mode
     844:	80 91 c2 00 	lds	r24, 0x00C2
     848:	8f 7b       	andi	r24, 0xBF	; 191
     84a:	80 93 c2 00 	sts	0x00C2, r24
		aux64 = F_CPU / 8 / baudRate;
		usartConfiguration.ubrr = (uint16)(aux64 - 1);
     84e:	60 e8       	ldi	r22, 0x80	; 128
     850:	74 e8       	ldi	r23, 0x84	; 132
     852:	8e e1       	ldi	r24, 0x1E	; 30
     854:	90 e0       	ldi	r25, 0x00	; 0
     856:	39 c0       	rjmp	.+114    	; 0x8ca <usartInit+0x116>
		break;
	case 2:
		clrBit(UCSR0A, U2X0);			// Write zero in synchronous mode
     858:	80 91 c0 00 	lds	r24, 0x00C0
     85c:	8d 7f       	andi	r24, 0xFD	; 253
     85e:	80 93 c0 00 	sts	0x00C0, r24
		if(usartConfiguration.polarity)
     862:	62 ff       	sbrs	r22, 2
     864:	04 c0       	rjmp	.+8      	; 0x86e <usartInit+0xba>
			setBit(UCSR0C, UCPOL0);		// XCK rising edge
     866:	80 91 c2 00 	lds	r24, 0x00C2
     86a:	81 60       	ori	r24, 0x01	; 1
     86c:	03 c0       	rjmp	.+6      	; 0x874 <usartInit+0xc0>
		else
			clrBit(UCSR0C, UCPOL0);		// XCK falling edge
     86e:	80 91 c2 00 	lds	r24, 0x00C2
     872:	8e 7f       	andi	r24, 0xFE	; 254
     874:	80 93 c2 00 	sts	0x00C2, r24
		clrBit(UCSR0C, UMSEL01);		// Synchronous mode
     878:	80 91 c2 00 	lds	r24, 0x00C2
     87c:	8f 77       	andi	r24, 0x7F	; 127
     87e:	80 93 c2 00 	sts	0x00C2, r24
		setBit(UCSR0C, UMSEL00);		// Synchronous mode
     882:	80 91 c2 00 	lds	r24, 0x00C2
     886:	80 64       	ori	r24, 0x40	; 64
     888:	80 93 c2 00 	sts	0x00C2, r24
     88c:	2c c0       	rjmp	.+88     	; 0x8e6 <usartInit+0x132>
		break;
	case 3:
		clrBit(UCSR0A, U2X0);			// Write zero in synchronous mode
     88e:	80 91 c0 00 	lds	r24, 0x00C0
     892:	8d 7f       	andi	r24, 0xFD	; 253
     894:	80 93 c0 00 	sts	0x00C0, r24
		if(usartConfiguration.polarity)
     898:	62 ff       	sbrs	r22, 2
     89a:	04 c0       	rjmp	.+8      	; 0x8a4 <usartInit+0xf0>
			setBit(UCSR0C, UCPOL0);		// XCK rising edge
     89c:	80 91 c2 00 	lds	r24, 0x00C2
     8a0:	81 60       	ori	r24, 0x01	; 1
     8a2:	03 c0       	rjmp	.+6      	; 0x8aa <usartInit+0xf6>
		else
			clrBit(UCSR0C, UCPOL0);		// XCK falling edge
     8a4:	80 91 c2 00 	lds	r24, 0x00C2
     8a8:	8e 7f       	andi	r24, 0xFE	; 254
     8aa:	80 93 c2 00 	sts	0x00C2, r24
		setBit(UCSR0C, UMSEL01);		// Master SPI mode
     8ae:	80 91 c2 00 	lds	r24, 0x00C2
     8b2:	80 68       	ori	r24, 0x80	; 128
     8b4:	80 93 c2 00 	sts	0x00C2, r24
		setBit(UCSR0C, UMSEL00);		// Master SPI mode
     8b8:	80 91 c2 00 	lds	r24, 0x00C2
     8bc:	80 64       	ori	r24, 0x40	; 64
     8be:	80 93 c2 00 	sts	0x00C2, r24
		aux64 = F_CPU / 2 / baudRate;
		usartConfiguration.ubrr = (uint16)(aux64 - 1);
     8c2:	60 e0       	ldi	r22, 0x00	; 0
     8c4:	72 e1       	ldi	r23, 0x12	; 18
     8c6:	8a e7       	ldi	r24, 0x7A	; 122
     8c8:	90 e0       	ldi	r25, 0x00	; 0
     8ca:	0e 94 2f 07 	call	0xe5e	; 0xe5e <__udivmodsi4>
     8ce:	21 50       	subi	r18, 0x01	; 1
     8d0:	30 40       	sbci	r19, 0x00	; 0
     8d2:	20 93 8e 01 	sts	0x018E, r18
     8d6:	93 2f       	mov	r25, r19
     8d8:	9f 70       	andi	r25, 0x0F	; 15
     8da:	80 91 8f 01 	lds	r24, 0x018F
     8de:	80 7f       	andi	r24, 0xF0	; 240
     8e0:	89 2b       	or	r24, r25
     8e2:	80 93 8f 01 	sts	0x018F, r24
		break;
	}

	// Sets the baud rate
	UBRR0H = (uint8)(usartConfiguration.ubrr >> 8);
     8e6:	80 91 8e 01 	lds	r24, 0x018E
     8ea:	40 91 8f 01 	lds	r20, 0x018F
     8ee:	94 2f       	mov	r25, r20
     8f0:	9f 70       	andi	r25, 0x0F	; 15
     8f2:	29 2f       	mov	r18, r25
     8f4:	33 27       	eor	r19, r19
     8f6:	27 fd       	sbrc	r18, 7
     8f8:	3a 95       	dec	r19
     8fa:	20 93 c5 00 	sts	0x00C5, r18
	UBRR0L = (uint8)usartConfiguration.ubrr;
     8fe:	80 93 c4 00 	sts	0x00C4, r24

	// Receiver buffer
	if(usartConfiguration.receiverBufferEnable)
     902:	45 ff       	sbrs	r20, 5
     904:	0a c0       	rjmp	.+20     	; 0x91a <__stack+0x1b>
		usartActivateReceptionCompleteInterrupt();
     906:	80 91 c1 00 	lds	r24, 0x00C1
     90a:	80 68       	ori	r24, 0x80	; 128
     90c:	80 93 c1 00 	sts	0x00C1, r24
     910:	80 91 8d 01 	lds	r24, 0x018D
     914:	82 60       	ori	r24, 0x02	; 2
     916:	80 93 8d 01 	sts	0x018D, r24
     91a:	08 95       	ret

0000091c <usartCheckError>:
 * Checks if an error occurred during transmission or reception
 * -------------------------------------------------------------------------- */

uint8 usartCheckError(void)
{
	usartConfiguration.frameError = isBitSet(UCSR0A, FE0);
     91c:	e0 ec       	ldi	r30, 0xC0	; 192
     91e:	f0 e0       	ldi	r31, 0x00	; 0
     920:	40 81       	ld	r20, Z
     922:	42 95       	swap	r20
     924:	41 70       	andi	r20, 0x01	; 1
     926:	84 2f       	mov	r24, r20
     928:	88 0f       	add	r24, r24
     92a:	88 0f       	add	r24, r24
     92c:	88 0f       	add	r24, r24
     92e:	90 91 8c 01 	lds	r25, 0x018C
     932:	97 7f       	andi	r25, 0xF7	; 247
     934:	98 2b       	or	r25, r24
     936:	90 93 8c 01 	sts	0x018C, r25
	usartConfiguration.bufferOverflowError = isBitSet(UCSR0A, DOR0);
     93a:	80 81       	ld	r24, Z
     93c:	86 95       	lsr	r24
     93e:	86 95       	lsr	r24
     940:	86 95       	lsr	r24
     942:	81 70       	andi	r24, 0x01	; 1
     944:	28 2f       	mov	r18, r24
     946:	22 95       	swap	r18
     948:	20 7f       	andi	r18, 0xF0	; 240
     94a:	9f 7e       	andi	r25, 0xEF	; 239
     94c:	92 2b       	or	r25, r18
     94e:	90 93 8c 01 	sts	0x018C, r25
	usartConfiguration.parityError = isBitSet(UCSR0A, UPE0);
     952:	20 81       	ld	r18, Z
     954:	26 95       	lsr	r18
     956:	26 95       	lsr	r18
     958:	21 70       	andi	r18, 0x01	; 1
     95a:	32 2f       	mov	r19, r18
     95c:	32 95       	swap	r19
     95e:	33 0f       	add	r19, r19
     960:	30 7e       	andi	r19, 0xE0	; 224
     962:	9f 7d       	andi	r25, 0xDF	; 223
     964:	93 2b       	or	r25, r19
     966:	90 93 8c 01 	sts	0x018C, r25
     96a:	82 2b       	or	r24, r18
	return (usartConfiguration.parityError | usartConfiguration.bufferOverflowError | usartConfiguration.frameError);
}
     96c:	84 2b       	or	r24, r20
     96e:	08 95       	ret

00000970 <usartTransmit>:
/* -----------------------------------------------------------------------------
 * Transmits data in 5, 6, 7 or 8 bits modes using the USART controller
 * -------------------------------------------------------------------------- */

void usartTransmit(int8 data)
{
     970:	98 2f       	mov	r25, r24
	
	while(!usartIsBufferEmpty())
     972:	80 91 c0 00 	lds	r24, 0x00C0
     976:	85 ff       	sbrs	r24, 5
     978:	fc cf       	rjmp	.-8      	; 0x972 <usartTransmit+0x2>
		;	// Waits until last transmission ends
	UDR0 = data;
     97a:	90 93 c6 00 	sts	0x00C6, r25
	return;
}
     97e:	08 95       	ret

00000980 <usartTransmit9bits>:
/* -----------------------------------------------------------------------------
 * Transmits data in 9 bits mode using the USART controller
 * -------------------------------------------------------------------------- */

void usartTransmit9bits(uint16 data)
{
     980:	9c 01       	movw	r18, r24
	uint8 aux;

	while(!usartIsBufferEmpty())
     982:	80 91 c0 00 	lds	r24, 0x00C0
     986:	85 ff       	sbrs	r24, 5
     988:	fc cf       	rjmp	.-8      	; 0x982 <usartTransmit9bits+0x2>
		;	// Waits until last transmission ends
	aux = ((data & 0x100) >> 8);
	if(aux)
     98a:	c9 01       	movw	r24, r18
     98c:	80 70       	andi	r24, 0x00	; 0
     98e:	91 70       	andi	r25, 0x01	; 1
     990:	99 23       	and	r25, r25
     992:	21 f0       	breq	.+8      	; 0x99c <usartTransmit9bits+0x1c>
		setBit(UCSR0B, TXB80);
     994:	80 91 c1 00 	lds	r24, 0x00C1
     998:	81 60       	ori	r24, 0x01	; 1
     99a:	03 c0       	rjmp	.+6      	; 0x9a2 <usartTransmit9bits+0x22>
	else
		clrBit(UCSR0B, TXB80);
     99c:	80 91 c1 00 	lds	r24, 0x00C1
     9a0:	8e 7f       	andi	r24, 0xFE	; 254
     9a2:	80 93 c1 00 	sts	0x00C1, r24
	UDR0 = (uint8)data;
     9a6:	20 93 c6 00 	sts	0x00C6, r18
	return;
}
     9aa:	08 95       	ret

000009ac <usartTransmitStd>:
 * Transmits data in 5, 6, 7 or 8 bits modes using the USART controller and
 * standard output heandler
 * -------------------------------------------------------------------------- */

int16 usartTransmitStd(int8 data, FILE * stream)
{
     9ac:	98 2f       	mov	r25, r24
	while(!usartIsBufferEmpty())
     9ae:	80 91 c0 00 	lds	r24, 0x00C0
     9b2:	85 ff       	sbrs	r24, 5
     9b4:	fc cf       	rjmp	.-8      	; 0x9ae <usartTransmitStd+0x2>
		;	// Waits until last transmission ends
	UDR0 = data;
     9b6:	90 93 c6 00 	sts	0x00C6, r25
	return FALSE;
}
     9ba:	80 e0       	ldi	r24, 0x00	; 0
     9bc:	90 e0       	ldi	r25, 0x00	; 0
     9be:	08 95       	ret

000009c0 <usartReceive>:

uint8 usartReceive(void)
{
	uint8 status;

	while(!usartIsReceptionComplete())
     9c0:	80 91 c0 00 	lds	r24, 0x00C0
     9c4:	87 ff       	sbrs	r24, 7
     9c6:	fc cf       	rjmp	.-8      	; 0x9c0 <usartReceive>
		;	// Waits until last reception ends
	status = UCSR0A;
     9c8:	90 91 c0 00 	lds	r25, 0x00C0
	usartConfiguration.frameError = isBitSet(status, FE0);
     9cc:	29 2f       	mov	r18, r25
     9ce:	26 95       	lsr	r18
     9d0:	28 70       	andi	r18, 0x08	; 8
     9d2:	80 91 8c 01 	lds	r24, 0x018C
     9d6:	87 7e       	andi	r24, 0xE7	; 231
	usartConfiguration.bufferOverflowError = isBitSet(status, DOR0);
     9d8:	99 0f       	add	r25, r25
     9da:	39 2f       	mov	r19, r25
     9dc:	30 71       	andi	r19, 0x10	; 16
     9de:	82 2b       	or	r24, r18
     9e0:	83 2b       	or	r24, r19
	usartConfiguration.parityError = isBitSet(status, UPE0);
     9e2:	99 0f       	add	r25, r25
     9e4:	99 0f       	add	r25, r25
     9e6:	90 72       	andi	r25, 0x20	; 32
     9e8:	8f 7d       	andi	r24, 0xDF	; 223
     9ea:	89 2b       	or	r24, r25
     9ec:	80 93 8c 01 	sts	0x018C, r24
	return UDR0;
     9f0:	80 91 c6 00 	lds	r24, 0x00C6
}
     9f4:	08 95       	ret

000009f6 <usartReceive9bits>:
	uint8 status;
	uint8 byteh;
	uint8 bytel;
	uint16 byte;

	while(!usartIsReceptionComplete())
     9f6:	80 91 c0 00 	lds	r24, 0x00C0
     9fa:	87 ff       	sbrs	r24, 7
     9fc:	fc cf       	rjmp	.-8      	; 0x9f6 <usartReceive9bits>
		;	// Waits until last reception ends
	status = UCSR0A;
     9fe:	90 91 c0 00 	lds	r25, 0x00C0
	byteh = UCSR0B;
     a02:	20 91 c1 00 	lds	r18, 0x00C1
	bytel = UDR0;
     a06:	60 91 c6 00 	lds	r22, 0x00C6

	usartConfiguration.frameError = isBitSet(status, FE0);
     a0a:	49 2f       	mov	r20, r25
     a0c:	46 95       	lsr	r20
     a0e:	48 70       	andi	r20, 0x08	; 8
     a10:	80 91 8c 01 	lds	r24, 0x018C
     a14:	87 7e       	andi	r24, 0xE7	; 231
	usartConfiguration.bufferOverflowError = isBitSet(status, DOR0);
     a16:	99 0f       	add	r25, r25
     a18:	59 2f       	mov	r21, r25
     a1a:	50 71       	andi	r21, 0x10	; 16
     a1c:	84 2b       	or	r24, r20
     a1e:	85 2b       	or	r24, r21
	usartConfiguration.parityError = isBitSet(status, UPE0);
     a20:	99 0f       	add	r25, r25
     a22:	99 0f       	add	r25, r25
     a24:	90 72       	andi	r25, 0x20	; 32
     a26:	8f 7d       	andi	r24, 0xDF	; 223
     a28:	89 2b       	or	r24, r25
     a2a:	80 93 8c 01 	sts	0x018C, r24

	byte = (uint16)(byteh & 0x02) << 7;
     a2e:	30 e0       	ldi	r19, 0x00	; 0
     a30:	22 70       	andi	r18, 0x02	; 2
     a32:	30 70       	andi	r19, 0x00	; 0
     a34:	36 95       	lsr	r19
     a36:	32 2f       	mov	r19, r18
     a38:	22 27       	eor	r18, r18
     a3a:	37 95       	ror	r19
     a3c:	27 95       	ror	r18
     a3e:	70 e0       	ldi	r23, 0x00	; 0
     a40:	26 2b       	or	r18, r22
     a42:	37 2b       	or	r19, r23
	byte |= bytel;
	return  byte;
}
     a44:	c9 01       	movw	r24, r18
     a46:	08 95       	ret

00000a48 <usartReceiveStd>:
 * standard input heandler
 * -------------------------------------------------------------------------- */

int16 usartReceiveStd(FILE * stream)
{
	while(!usartIsReceptionComplete())
     a48:	80 91 c0 00 	lds	r24, 0x00C0
     a4c:	87 ff       	sbrs	r24, 7
     a4e:	fc cf       	rjmp	.-8      	; 0xa48 <usartReceiveStd>
		;	// Waits until last reception ends
	return (int16)UDR0;
     a50:	80 91 c6 00 	lds	r24, 0x00C6
}
     a54:	90 e0       	ldi	r25, 0x00	; 0
     a56:	08 95       	ret

00000a58 <usartClearReceptionBuffer>:
/* -----------------------------------------------------------------------------
 * Clears the receptor data buffer
 * -------------------------------------------------------------------------- */

void usartClearReceptionBuffer(void)
{
     a58:	02 c0       	rjmp	.+4      	; 0xa5e <usartClearReceptionBuffer+0x6>
	uint8 aux;
	while(usartIsReceptionComplete())
		aux = UDR0;
     a5a:	80 91 c6 00 	lds	r24, 0x00C6
 * -------------------------------------------------------------------------- */

void usartClearReceptionBuffer(void)
{
	uint8 aux;
	while(usartIsReceptionComplete())
     a5e:	80 91 c0 00 	lds	r24, 0x00C0
     a62:	87 fd       	sbrc	r24, 7
     a64:	fa cf       	rjmp	.-12     	; 0xa5a <usartClearReceptionBuffer+0x2>
		aux = UDR0;
	return;
}
     a66:	08 95       	ret

00000a68 <usartAddDataToReceiverBuffer>:
/* -----------------------------------------------------------------------------
 * Adds data to the reception buffer. The function has NO CONTROL of lost data.
 * -------------------------------------------------------------------------- */

void usartAddDataToReceiverBuffer(uint8 data)
{
     a68:	1f 93       	push	r17
     a6a:	cf 93       	push	r28
     a6c:	df 93       	push	r29
     a6e:	18 2f       	mov	r17, r24
	if(((usartReceiverBufferNextWrite + 1) % USART_RECEIVER_BUFFER_SIZE) != usartReceiverBufferNextRead){
     a70:	80 91 93 01 	lds	r24, 0x0193
     a74:	c8 2f       	mov	r28, r24
     a76:	d0 e0       	ldi	r29, 0x00	; 0
     a78:	21 96       	adiw	r28, 0x01	; 1
     a7a:	be 01       	movw	r22, r28
     a7c:	88 27       	eor	r24, r24
     a7e:	77 fd       	sbrc	r23, 7
     a80:	80 95       	com	r24
     a82:	98 2f       	mov	r25, r24
     a84:	21 97       	sbiw	r28, 0x01	; 1
     a86:	22 e3       	ldi	r18, 0x32	; 50
     a88:	30 e0       	ldi	r19, 0x00	; 0
     a8a:	40 e0       	ldi	r20, 0x00	; 0
     a8c:	50 e0       	ldi	r21, 0x00	; 0
     a8e:	0e 94 2f 07 	call	0xe5e	; 0xe5e <__udivmodsi4>
     a92:	9b 01       	movw	r18, r22
     a94:	ac 01       	movw	r20, r24
     a96:	80 91 95 01 	lds	r24, 0x0195
     a9a:	90 e0       	ldi	r25, 0x00	; 0
     a9c:	a0 e0       	ldi	r26, 0x00	; 0
     a9e:	b0 e0       	ldi	r27, 0x00	; 0
     aa0:	28 17       	cp	r18, r24
     aa2:	39 07       	cpc	r19, r25
     aa4:	4a 07       	cpc	r20, r26
     aa6:	5b 07       	cpc	r21, r27
     aa8:	51 f0       	breq	.+20     	; 0xabe <usartAddDataToReceiverBuffer+0x56>
		usartReceiverBuffer[usartReceiverBufferNextWrite] = data;
     aaa:	c6 5a       	subi	r28, 0xA6	; 166
     aac:	de 4f       	sbci	r29, 0xFE	; 254
     aae:	18 83       	st	Y, r17
		usartReceiverBufferNextWrite = (usartReceiverBufferNextWrite + 1) % USART_RECEIVER_BUFFER_SIZE;
     ab0:	20 93 93 01 	sts	0x0193, r18
		usartReceiverBufferLength++;
     ab4:	80 91 94 01 	lds	r24, 0x0194
     ab8:	8f 5f       	subi	r24, 0xFF	; 255
     aba:	80 93 94 01 	sts	0x0194, r24
	}
	return;
}
     abe:	df 91       	pop	r29
     ac0:	cf 91       	pop	r28
     ac2:	1f 91       	pop	r17
     ac4:	08 95       	ret

00000ac6 <usartGetDataFromReceiverBuffer>:
 * usartIsReceiverBufferEmpty() function must be called to check if there is new
 * data in the buffer.
 * -------------------------------------------------------------------------- */

uint8 usartGetDataFromReceiverBuffer(void)
{
     ac6:	0f 93       	push	r16
     ac8:	1f 93       	push	r17
	uint8 data = usartReceiverBuffer[usartReceiverBufferNextRead];
     aca:	80 91 95 01 	lds	r24, 0x0195
     ace:	28 2f       	mov	r18, r24
     ad0:	30 e0       	ldi	r19, 0x00	; 0
     ad2:	f9 01       	movw	r30, r18
     ad4:	e6 5a       	subi	r30, 0xA6	; 166
     ad6:	fe 4f       	sbci	r31, 0xFE	; 254
     ad8:	00 81       	ld	r16, Z
	if(usartReceiverBufferLength > 0){
     ada:	10 91 94 01 	lds	r17, 0x0194
     ade:	11 23       	and	r17, r17
     ae0:	91 f0       	breq	.+36     	; 0xb06 <usartGetDataFromReceiverBuffer+0x40>
		usartReceiverBufferNextRead = (usartReceiverBufferNextRead + 1) % USART_RECEIVER_BUFFER_SIZE;
     ae2:	2f 5f       	subi	r18, 0xFF	; 255
     ae4:	3f 4f       	sbci	r19, 0xFF	; 255
     ae6:	b9 01       	movw	r22, r18
     ae8:	88 27       	eor	r24, r24
     aea:	77 fd       	sbrc	r23, 7
     aec:	80 95       	com	r24
     aee:	98 2f       	mov	r25, r24
     af0:	22 e3       	ldi	r18, 0x32	; 50
     af2:	30 e0       	ldi	r19, 0x00	; 0
     af4:	40 e0       	ldi	r20, 0x00	; 0
     af6:	50 e0       	ldi	r21, 0x00	; 0
     af8:	0e 94 2f 07 	call	0xe5e	; 0xe5e <__udivmodsi4>
     afc:	60 93 95 01 	sts	0x0195, r22
		usartReceiverBufferLength--;
     b00:	11 50       	subi	r17, 0x01	; 1
     b02:	10 93 94 01 	sts	0x0194, r17
	}
	return data;
}
     b06:	80 2f       	mov	r24, r16
     b08:	1f 91       	pop	r17
     b0a:	0f 91       	pop	r16
     b0c:	08 95       	ret

00000b0e <usartIsReceiverBufferEmpty>:
 * Verifies if there is new data in the receiver buffer. Must be called before
 * reading the buffer.
 * -------------------------------------------------------------------------- */

uint8 usartIsReceiverBufferEmpty(void)
{
     b0e:	90 e0       	ldi	r25, 0x00	; 0
     b10:	80 91 94 01 	lds	r24, 0x0194
     b14:	88 23       	and	r24, r24
     b16:	09 f4       	brne	.+2      	; 0xb1a <usartIsReceiverBufferEmpty+0xc>
     b18:	91 e0       	ldi	r25, 0x01	; 1
	if(usartReceiverBufferLength == 0)
		return TRUE;
	return FALSE;
}
     b1a:	89 2f       	mov	r24, r25
     b1c:	08 95       	ret

00000b1e <usartGetCurrentBaudRate>:

 uint32 usartGetCurrentBaudRate(void)
 {
	uint32 aux32 = 0;

	switch(usartConfiguration.mode){
     b1e:	80 91 8c 01 	lds	r24, 0x018C
     b22:	83 70       	andi	r24, 0x03	; 3
     b24:	90 e0       	ldi	r25, 0x00	; 0
     b26:	81 30       	cpi	r24, 0x01	; 1
     b28:	91 05       	cpc	r25, r1
     b2a:	b9 f0       	breq	.+46     	; 0xb5a <usartGetCurrentBaudRate+0x3c>
     b2c:	82 30       	cpi	r24, 0x02	; 2
     b2e:	91 05       	cpc	r25, r1
     b30:	09 f1       	breq	.+66     	; 0xb74 <usartGetCurrentBaudRate+0x56>
     b32:	89 2b       	or	r24, r25
     b34:	29 f0       	breq	.+10     	; 0xb40 <usartGetCurrentBaudRate+0x22>
     b36:	20 e0       	ldi	r18, 0x00	; 0
     b38:	30 e0       	ldi	r19, 0x00	; 0
     b3a:	40 e0       	ldi	r20, 0x00	; 0
     b3c:	50 e0       	ldi	r21, 0x00	; 0
     b3e:	2c c0       	rjmp	.+88     	; 0xb98 <usartGetCurrentBaudRate+0x7a>
	case 0:
		aux32 = F_CPU / 16 / (UBRR0 + 1);
     b40:	20 91 c4 00 	lds	r18, 0x00C4
     b44:	30 91 c5 00 	lds	r19, 0x00C5
     b48:	2f 5f       	subi	r18, 0xFF	; 255
     b4a:	3f 4f       	sbci	r19, 0xFF	; 255
     b4c:	40 e0       	ldi	r20, 0x00	; 0
     b4e:	50 e0       	ldi	r21, 0x00	; 0
     b50:	60 e4       	ldi	r22, 0x40	; 64
     b52:	72 e4       	ldi	r23, 0x42	; 66
     b54:	8f e0       	ldi	r24, 0x0F	; 15
     b56:	90 e0       	ldi	r25, 0x00	; 0
     b58:	19 c0       	rjmp	.+50     	; 0xb8c <usartGetCurrentBaudRate+0x6e>
		break;
	case 1:
		aux32 = F_CPU / 8 / (UBRR0 + 1);
     b5a:	20 91 c4 00 	lds	r18, 0x00C4
     b5e:	30 91 c5 00 	lds	r19, 0x00C5
     b62:	2f 5f       	subi	r18, 0xFF	; 255
     b64:	3f 4f       	sbci	r19, 0xFF	; 255
     b66:	40 e0       	ldi	r20, 0x00	; 0
     b68:	50 e0       	ldi	r21, 0x00	; 0
     b6a:	60 e8       	ldi	r22, 0x80	; 128
     b6c:	74 e8       	ldi	r23, 0x84	; 132
     b6e:	8e e1       	ldi	r24, 0x1E	; 30
     b70:	90 e0       	ldi	r25, 0x00	; 0
     b72:	0c c0       	rjmp	.+24     	; 0xb8c <usartGetCurrentBaudRate+0x6e>
		break;
	case 2:
		aux32 = F_CPU / 2 / (UBRR0 + 1);
     b74:	20 91 c4 00 	lds	r18, 0x00C4
     b78:	30 91 c5 00 	lds	r19, 0x00C5
     b7c:	2f 5f       	subi	r18, 0xFF	; 255
     b7e:	3f 4f       	sbci	r19, 0xFF	; 255
     b80:	40 e0       	ldi	r20, 0x00	; 0
     b82:	50 e0       	ldi	r21, 0x00	; 0
     b84:	60 e0       	ldi	r22, 0x00	; 0
     b86:	72 e1       	ldi	r23, 0x12	; 18
     b88:	8a e7       	ldi	r24, 0x7A	; 122
     b8a:	90 e0       	ldi	r25, 0x00	; 0
     b8c:	0e 94 2f 07 	call	0xe5e	; 0xe5e <__udivmodsi4>
     b90:	c9 01       	movw	r24, r18
     b92:	da 01       	movw	r26, r20
     b94:	9c 01       	movw	r18, r24
     b96:	ad 01       	movw	r20, r26
		break;
	}
	return aux32;
     b98:	b9 01       	movw	r22, r18
     b9a:	ca 01       	movw	r24, r20
     b9c:	08 95       	ret

00000b9e <lcdCommand>:
/* -----------------------------------------------------------------------------
 * Sends a command to the display module.
 * -------------------------------------------------------------------------- */

void lcdCommand(int8 command)
{
     b9e:	38 2f       	mov	r19, r24
	uint8 i = 2;

	LCD_DATA_PORT = (LCD_DATA_PORT & (~(0x0F << LCD_DATA_D4))) | ((command >> 4) << LCD_DATA_D4);
     ba0:	85 b1       	in	r24, 0x05	; 5
     ba2:	93 2f       	mov	r25, r19
     ba4:	92 95       	swap	r25
     ba6:	9f 70       	andi	r25, 0x0F	; 15
     ba8:	80 7f       	andi	r24, 0xF0	; 240
     baa:	98 2b       	or	r25, r24
     bac:	95 b9       	out	0x05, r25	; 5
     bae:	22 e0       	ldi	r18, 0x02	; 2
    can be achieved.
*/
void
_delay_loop_1(uint8_t __count)
{
	__asm__ volatile (
     bb0:	55 e0       	ldi	r21, 0x05	; 5
    milliseconds can be achieved.
 */
void
_delay_loop_2(uint16_t __count)
{
	__asm__ volatile (
     bb2:	e0 ef       	ldi	r30, 0xF0	; 240
     bb4:	60 e4       	ldi	r22, 0x40	; 64
     bb6:	7f e1       	ldi	r23, 0x1F	; 31
		_delay_us(1);
		clrBit(LCD_CONTROL_PORT, LCD_CONTROL_E);
		_delay_us(45);
		if(command < 4)
			_delay_ms(2);
		LCD_DATA_PORT = (LCD_DATA_PORT & (~(0x0F << LCD_DATA_D4))) | ((command & 0x0F) << LCD_DATA_D4);
     bb8:	43 2f       	mov	r20, r19
     bba:	4f 70       	andi	r20, 0x0F	; 15
{
	uint8 i = 2;

	LCD_DATA_PORT = (LCD_DATA_PORT & (~(0x0F << LCD_DATA_D4))) | ((command >> 4) << LCD_DATA_D4);
	do{
		clrBit(LCD_CONTROL_PORT, LCD_CONTROL_RS);
     bbc:	2d 98       	cbi	0x05, 5	; 5
    can be achieved.
*/
void
_delay_loop_1(uint8_t __count)
{
	__asm__ volatile (
     bbe:	85 2f       	mov	r24, r21
     bc0:	8a 95       	dec	r24
     bc2:	f1 f7       	brne	.-4      	; 0xbc0 <lcdCommand+0x22>
		_delay_us(1);
		setBit(LCD_CONTROL_PORT, LCD_CONTROL_E);
     bc4:	2c 9a       	sbi	0x05, 4	; 5
     bc6:	85 2f       	mov	r24, r21
     bc8:	8a 95       	dec	r24
     bca:	f1 f7       	brne	.-4      	; 0xbc8 <lcdCommand+0x2a>
		_delay_us(1);
		clrBit(LCD_CONTROL_PORT, LCD_CONTROL_E);
     bcc:	2c 98       	cbi	0x05, 4	; 5
     bce:	8e 2f       	mov	r24, r30
     bd0:	8a 95       	dec	r24
     bd2:	f1 f7       	brne	.-4      	; 0xbd0 <lcdCommand+0x32>
		_delay_us(45);
		if(command < 4)
     bd4:	34 30       	cpi	r19, 0x04	; 4
     bd6:	18 f4       	brcc	.+6      	; 0xbde <lcdCommand+0x40>
    milliseconds can be achieved.
 */
void
_delay_loop_2(uint16_t __count)
{
	__asm__ volatile (
     bd8:	cb 01       	movw	r24, r22
     bda:	01 97       	sbiw	r24, 0x01	; 1
     bdc:	f1 f7       	brne	.-4      	; 0xbda <lcdCommand+0x3c>
			_delay_ms(2);
		LCD_DATA_PORT = (LCD_DATA_PORT & (~(0x0F << LCD_DATA_D4))) | ((command & 0x0F) << LCD_DATA_D4);
     bde:	85 b1       	in	r24, 0x05	; 5
     be0:	80 7f       	andi	r24, 0xF0	; 240
     be2:	84 2b       	or	r24, r20
     be4:	85 b9       	out	0x05, r24	; 5
		i--;
     be6:	21 50       	subi	r18, 0x01	; 1
	}while(i > 0);
     be8:	49 f7       	brne	.-46     	; 0xbbc <lcdCommand+0x1e>
	return;
}
     bea:	08 95       	ret

00000bec <lcdInit>:
 * Performs LCD module initialization.
 * -------------------------------------------------------------------------- */

void lcdInit(void)
{
	lcdIOConfigure();
     bec:	85 b1       	in	r24, 0x05	; 5
     bee:	80 7f       	andi	r24, 0xF0	; 240
     bf0:	85 b9       	out	0x05, r24	; 5
     bf2:	84 b1       	in	r24, 0x04	; 4
     bf4:	8f 60       	ori	r24, 0x0F	; 15
     bf6:	84 b9       	out	0x04, r24	; 4
     bf8:	85 b1       	in	r24, 0x05	; 5
     bfa:	8e 7c       	andi	r24, 0xCE	; 206
     bfc:	85 b9       	out	0x05, r24	; 5
     bfe:	84 b1       	in	r24, 0x04	; 4
     c00:	81 63       	ori	r24, 0x31	; 49
     c02:	84 b9       	out	0x04, r24	; 4
	LCD_DATA_PORT = (LCD_DATA_PORT & (~(0x0F << LCD_DATA_D4))) | (0x03 << LCD_DATA_D4);
     c04:	85 b1       	in	r24, 0x05	; 5
     c06:	80 7f       	andi	r24, 0xF0	; 240
     c08:	83 60       	ori	r24, 0x03	; 3
     c0a:	85 b9       	out	0x05, r24	; 5
    can be achieved.
*/
void
_delay_loop_1(uint8_t __count)
{
	__asm__ volatile (
     c0c:	95 e0       	ldi	r25, 0x05	; 5
     c0e:	89 2f       	mov	r24, r25
     c10:	8a 95       	dec	r24
     c12:	f1 f7       	brne	.-4      	; 0xc10 <lcdInit+0x24>
	_delay_us(1);
	setBit(LCD_CONTROL_PORT, LCD_CONTROL_E);
     c14:	2c 9a       	sbi	0x05, 4	; 5
     c16:	89 2f       	mov	r24, r25
     c18:	8a 95       	dec	r24
     c1a:	f1 f7       	brne	.-4      	; 0xc18 <lcdInit+0x2c>
	_delay_us(1);
	clrBit(LCD_CONTROL_PORT, LCD_CONTROL_E);
     c1c:	2c 98       	cbi	0x05, 4	; 5
     c1e:	20 ef       	ldi	r18, 0xF0	; 240
     c20:	82 2f       	mov	r24, r18
     c22:	8a 95       	dec	r24
     c24:	f1 f7       	brne	.-4      	; 0xc22 <lcdInit+0x36>
    milliseconds can be achieved.
 */
void
_delay_loop_2(uint16_t __count)
{
	__asm__ volatile (
     c26:	e0 e2       	ldi	r30, 0x20	; 32
     c28:	fe e4       	ldi	r31, 0x4E	; 78
     c2a:	31 97       	sbiw	r30, 0x01	; 1
     c2c:	f1 f7       	brne	.-4      	; 0xc2a <lcdInit+0x3e>
    can be achieved.
*/
void
_delay_loop_1(uint8_t __count)
{
	__asm__ volatile (
     c2e:	89 2f       	mov	r24, r25
     c30:	8a 95       	dec	r24
     c32:	f1 f7       	brne	.-4      	; 0xc30 <lcdInit+0x44>
	_delay_us(45);
	_delay_ms(5);
	_delay_us(1);
	setBit(LCD_CONTROL_PORT, LCD_CONTROL_E);
     c34:	2c 9a       	sbi	0x05, 4	; 5
     c36:	89 2f       	mov	r24, r25
     c38:	8a 95       	dec	r24
     c3a:	f1 f7       	brne	.-4      	; 0xc38 <lcdInit+0x4c>
	_delay_us(1);
	clrBit(LCD_CONTROL_PORT, LCD_CONTROL_E);
     c3c:	2c 98       	cbi	0x05, 4	; 5
     c3e:	82 2f       	mov	r24, r18
     c40:	8a 95       	dec	r24
     c42:	f1 f7       	brne	.-4      	; 0xc40 <lcdInit+0x54>
    milliseconds can be achieved.
 */
void
_delay_loop_2(uint16_t __count)
{
	__asm__ volatile (
     c44:	e0 e2       	ldi	r30, 0x20	; 32
     c46:	f3 e0       	ldi	r31, 0x03	; 3
     c48:	31 97       	sbiw	r30, 0x01	; 1
     c4a:	f1 f7       	brne	.-4      	; 0xc48 <lcdInit+0x5c>
    can be achieved.
*/
void
_delay_loop_1(uint8_t __count)
{
	__asm__ volatile (
     c4c:	89 2f       	mov	r24, r25
     c4e:	8a 95       	dec	r24
     c50:	f1 f7       	brne	.-4      	; 0xc4e <lcdInit+0x62>
	_delay_us(45);
	_delay_us(200);
	_delay_us(1);
	setBit(LCD_CONTROL_PORT, LCD_CONTROL_E);
     c52:	2c 9a       	sbi	0x05, 4	; 5
     c54:	89 2f       	mov	r24, r25
     c56:	8a 95       	dec	r24
     c58:	f1 f7       	brne	.-4      	; 0xc56 <lcdInit+0x6a>
	_delay_us(1);
	clrBit(LCD_CONTROL_PORT, LCD_CONTROL_E);
     c5a:	2c 98       	cbi	0x05, 4	; 5
     c5c:	82 2f       	mov	r24, r18
     c5e:	8a 95       	dec	r24
     c60:	f1 f7       	brne	.-4      	; 0xc5e <lcdInit+0x72>
	_delay_us(45);
	LCD_DATA_PORT = (LCD_DATA_PORT & (~(0x0F << LCD_DATA_D4))) | (0x02 << LCD_DATA_D4);
     c62:	85 b1       	in	r24, 0x05	; 5
     c64:	80 7f       	andi	r24, 0xF0	; 240
     c66:	82 60       	ori	r24, 0x02	; 2
     c68:	85 b9       	out	0x05, r24	; 5
     c6a:	89 2f       	mov	r24, r25
     c6c:	8a 95       	dec	r24
     c6e:	f1 f7       	brne	.-4      	; 0xc6c <lcdInit+0x80>
	_delay_us(1);
	setBit(LCD_CONTROL_PORT, LCD_CONTROL_E);
     c70:	2c 9a       	sbi	0x05, 4	; 5
     c72:	9a 95       	dec	r25
     c74:	f1 f7       	brne	.-4      	; 0xc72 <lcdInit+0x86>
	_delay_us(1);
	clrBit(LCD_CONTROL_PORT, LCD_CONTROL_E);
     c76:	2c 98       	cbi	0x05, 4	; 5
     c78:	2a 95       	dec	r18
     c7a:	f1 f7       	brne	.-4      	; 0xc78 <lcdInit+0x8c>
	_delay_us(45);
	lcdCommand(0x28);
     c7c:	88 e2       	ldi	r24, 0x28	; 40
     c7e:	0e 94 cf 05 	call	0xb9e	; 0xb9e <lcdCommand>
	lcdCommand(0x08);
     c82:	88 e0       	ldi	r24, 0x08	; 8
     c84:	0e 94 cf 05 	call	0xb9e	; 0xb9e <lcdCommand>
   	lcdClearScreen();
     c88:	10 92 96 01 	sts	0x0196, r1
     c8c:	81 e0       	ldi	r24, 0x01	; 1
     c8e:	0e 94 cf 05 	call	0xb9e	; 0xb9e <lcdCommand>
   	lcdDisplayOn();   
     c92:	80 91 97 01 	lds	r24, 0x0197
     c96:	81 60       	ori	r24, 0x01	; 1
     c98:	80 93 97 01 	sts	0x0197, r24
     c9c:	98 2f       	mov	r25, r24
     c9e:	96 95       	lsr	r25
     ca0:	96 95       	lsr	r25
     ca2:	91 70       	andi	r25, 0x01	; 1
     ca4:	9c 60       	ori	r25, 0x0C	; 12
     ca6:	82 70       	andi	r24, 0x02	; 2
     ca8:	89 2b       	or	r24, r25
     caa:	0e 94 cf 05 	call	0xb9e	; 0xb9e <lcdCommand>
   	lcdCursorMoveFirstLine();
     cae:	84 e0       	ldi	r24, 0x04	; 4
     cb0:	80 93 96 01 	sts	0x0196, r24
     cb4:	80 e8       	ldi	r24, 0x80	; 128
     cb6:	0e 94 cf 05 	call	0xb9e	; 0xb9e <lcdCommand>
	return;
}
     cba:	08 95       	ret

00000cbc <lcdWrite>:
/* -----------------------------------------------------------------------------
 * Writes a character on the display.
 * -------------------------------------------------------------------------- */

void lcdWrite(int8 character)
{
     cbc:	48 2f       	mov	r20, r24
	uint8 i = 2;

	if(character == '\n')
     cbe:	8a 30       	cpi	r24, 0x0A	; 10
     cc0:	b1 f4       	brne	.+44     	; 0xcee <lcdWrite+0x32>
		lcdCursorMoveNextLine();
     cc2:	80 91 96 01 	lds	r24, 0x0196
     cc6:	98 2f       	mov	r25, r24
     cc8:	9c 7f       	andi	r25, 0xFC	; 252
     cca:	83 70       	andi	r24, 0x03	; 3
     ccc:	29 f4       	brne	.+10     	; 0xcd8 <lcdWrite+0x1c>
     cce:	91 60       	ori	r25, 0x01	; 1
     cd0:	90 93 96 01 	sts	0x0196, r25
     cd4:	80 ec       	ldi	r24, 0xC0	; 192
     cd6:	03 c0       	rjmp	.+6      	; 0xcde <lcdWrite+0x22>
     cd8:	90 93 96 01 	sts	0x0196, r25
     cdc:	80 e8       	ldi	r24, 0x80	; 128
     cde:	0e 94 cf 05 	call	0xb9e	; 0xb9e <lcdCommand>
     ce2:	80 91 96 01 	lds	r24, 0x0196
     ce6:	83 70       	andi	r24, 0x03	; 3
     ce8:	80 93 96 01 	sts	0x0196, r24
     cec:	08 95       	ret
	else{
		LCD_DATA_PORT = (LCD_DATA_PORT & (~(0x0F << LCD_DATA_D4))) | ((character >> 4) << LCD_DATA_D4);
     cee:	85 b1       	in	r24, 0x05	; 5
     cf0:	94 2f       	mov	r25, r20
     cf2:	92 95       	swap	r25
     cf4:	9f 70       	andi	r25, 0x0F	; 15
     cf6:	80 7f       	andi	r24, 0xF0	; 240
     cf8:	98 2b       	or	r25, r24
     cfa:	95 b9       	out	0x05, r25	; 5
		do{
			setBit(LCD_CONTROL_PORT, LCD_CONTROL_RS);
     cfc:	2d 9a       	sbi	0x05, 5	; 5
     cfe:	25 e0       	ldi	r18, 0x05	; 5
     d00:	82 2f       	mov	r24, r18
     d02:	8a 95       	dec	r24
     d04:	f1 f7       	brne	.-4      	; 0xd02 <lcdWrite+0x46>
			_delay_us(1);
			setBit(LCD_CONTROL_PORT, LCD_CONTROL_E);
     d06:	2c 9a       	sbi	0x05, 4	; 5
     d08:	82 2f       	mov	r24, r18
     d0a:	8a 95       	dec	r24
     d0c:	f1 f7       	brne	.-4      	; 0xd0a <lcdWrite+0x4e>
			_delay_us(1);
			clrBit(LCD_CONTROL_PORT, LCD_CONTROL_E);
     d0e:	2c 98       	cbi	0x05, 4	; 5
     d10:	30 ef       	ldi	r19, 0xF0	; 240
     d12:	83 2f       	mov	r24, r19
     d14:	8a 95       	dec	r24
     d16:	f1 f7       	brne	.-4      	; 0xd14 <lcdWrite+0x58>
			_delay_us(45);
			LCD_DATA_PORT = (LCD_DATA_PORT & (~(0x0F << LCD_DATA_D4))) | ((character & 0x0F) << LCD_DATA_D4);
     d18:	85 b1       	in	r24, 0x05	; 5
     d1a:	94 2f       	mov	r25, r20
     d1c:	9f 70       	andi	r25, 0x0F	; 15
     d1e:	80 7f       	andi	r24, 0xF0	; 240
     d20:	89 2b       	or	r24, r25
     d22:	85 b9       	out	0x05, r24	; 5
	if(character == '\n')
		lcdCursorMoveNextLine();
	else{
		LCD_DATA_PORT = (LCD_DATA_PORT & (~(0x0F << LCD_DATA_D4))) | ((character >> 4) << LCD_DATA_D4);
		do{
			setBit(LCD_CONTROL_PORT, LCD_CONTROL_RS);
     d24:	2d 9a       	sbi	0x05, 5	; 5
     d26:	82 2f       	mov	r24, r18
     d28:	8a 95       	dec	r24
     d2a:	f1 f7       	brne	.-4      	; 0xd28 <lcdWrite+0x6c>
			_delay_us(1);
			setBit(LCD_CONTROL_PORT, LCD_CONTROL_E);
     d2c:	2c 9a       	sbi	0x05, 4	; 5
     d2e:	2a 95       	dec	r18
     d30:	f1 f7       	brne	.-4      	; 0xd2e <lcdWrite+0x72>
			_delay_us(1);
			clrBit(LCD_CONTROL_PORT, LCD_CONTROL_E);
     d32:	2c 98       	cbi	0x05, 4	; 5
     d34:	3a 95       	dec	r19
     d36:	f1 f7       	brne	.-4      	; 0xd34 <lcdWrite+0x78>
			_delay_us(45);
			LCD_DATA_PORT = (LCD_DATA_PORT & (~(0x0F << LCD_DATA_D4))) | ((character & 0x0F) << LCD_DATA_D4);
     d38:	85 b1       	in	r24, 0x05	; 5
     d3a:	80 7f       	andi	r24, 0xF0	; 240
     d3c:	98 2b       	or	r25, r24
     d3e:	95 b9       	out	0x05, r25	; 5
     d40:	08 95       	ret

00000d42 <lcdWriteStd>:
/* -----------------------------------------------------------------------------
 * Writes a character on the display using the standard output handler.
 * -------------------------------------------------------------------------- */

int16 lcdWriteStd(int8 character, FILE * stream)
{
     d42:	1f 93       	push	r17
     d44:	48 2f       	mov	r20, r24
	uint8 i = 2;

	if(character == '\n'){
     d46:	8a 30       	cpi	r24, 0x0A	; 10
     d48:	09 f5       	brne	.+66     	; 0xd8c <lcdWriteStd+0x4a>
		for(i = lcdConfiguration.column;i < (LCD_COLUMNS);i++)
     d4a:	10 91 96 01 	lds	r17, 0x0196
     d4e:	16 95       	lsr	r17
     d50:	16 95       	lsr	r17
     d52:	04 c0       	rjmp	.+8      	; 0xd5c <lcdWriteStd+0x1a>
			lcdWrite(' ');
     d54:	80 e2       	ldi	r24, 0x20	; 32
     d56:	0e 94 5e 06 	call	0xcbc	; 0xcbc <lcdWrite>
int16 lcdWriteStd(int8 character, FILE * stream)
{
	uint8 i = 2;

	if(character == '\n'){
		for(i = lcdConfiguration.column;i < (LCD_COLUMNS);i++)
     d5a:	1f 5f       	subi	r17, 0xFF	; 255
     d5c:	10 31       	cpi	r17, 0x10	; 16
     d5e:	d0 f3       	brcs	.-12     	; 0xd54 <lcdWriteStd+0x12>
			lcdWrite(' ');
		lcdCursorMoveNextLine();
     d60:	80 91 96 01 	lds	r24, 0x0196
     d64:	98 2f       	mov	r25, r24
     d66:	9c 7f       	andi	r25, 0xFC	; 252
     d68:	83 70       	andi	r24, 0x03	; 3
     d6a:	29 f4       	brne	.+10     	; 0xd76 <lcdWriteStd+0x34>
     d6c:	91 60       	ori	r25, 0x01	; 1
     d6e:	90 93 96 01 	sts	0x0196, r25
     d72:	80 ec       	ldi	r24, 0xC0	; 192
     d74:	03 c0       	rjmp	.+6      	; 0xd7c <lcdWriteStd+0x3a>
     d76:	90 93 96 01 	sts	0x0196, r25
     d7a:	80 e8       	ldi	r24, 0x80	; 128
     d7c:	0e 94 cf 05 	call	0xb9e	; 0xb9e <lcdCommand>
     d80:	80 91 96 01 	lds	r24, 0x0196
     d84:	83 70       	andi	r24, 0x03	; 3
     d86:	80 93 96 01 	sts	0x0196, r24
     d8a:	32 c0       	rjmp	.+100    	; 0xdf0 <lcdWriteStd+0xae>
	}else{
		lcdConfiguration.column++;
     d8c:	80 91 96 01 	lds	r24, 0x0196
     d90:	98 2f       	mov	r25, r24
     d92:	9c 7f       	andi	r25, 0xFC	; 252
     d94:	9c 5f       	subi	r25, 0xFC	; 252
     d96:	83 70       	andi	r24, 0x03	; 3
     d98:	89 2b       	or	r24, r25
     d9a:	80 93 96 01 	sts	0x0196, r24
		LCD_DATA_PORT = (LCD_DATA_PORT & (~(0x0F << LCD_DATA_D4))) | ((character >> 4) << LCD_DATA_D4);
     d9e:	85 b1       	in	r24, 0x05	; 5
     da0:	94 2f       	mov	r25, r20
     da2:	92 95       	swap	r25
     da4:	9f 70       	andi	r25, 0x0F	; 15
     da6:	80 7f       	andi	r24, 0xF0	; 240
     da8:	98 2b       	or	r25, r24
     daa:	95 b9       	out	0x05, r25	; 5
		do{
			setBit(LCD_CONTROL_PORT, LCD_CONTROL_RS);
     dac:	2d 9a       	sbi	0x05, 5	; 5
     dae:	25 e0       	ldi	r18, 0x05	; 5
     db0:	82 2f       	mov	r24, r18
     db2:	8a 95       	dec	r24
     db4:	f1 f7       	brne	.-4      	; 0xdb2 <lcdWriteStd+0x70>
			_delay_us(1);
			setBit(LCD_CONTROL_PORT, LCD_CONTROL_E);
     db6:	2c 9a       	sbi	0x05, 4	; 5
     db8:	82 2f       	mov	r24, r18
     dba:	8a 95       	dec	r24
     dbc:	f1 f7       	brne	.-4      	; 0xdba <lcdWriteStd+0x78>
			_delay_us(1);
			clrBit(LCD_CONTROL_PORT, LCD_CONTROL_E);
     dbe:	2c 98       	cbi	0x05, 4	; 5
     dc0:	30 ef       	ldi	r19, 0xF0	; 240
     dc2:	83 2f       	mov	r24, r19
     dc4:	8a 95       	dec	r24
     dc6:	f1 f7       	brne	.-4      	; 0xdc4 <lcdWriteStd+0x82>
			_delay_us(45);
			LCD_DATA_PORT = (LCD_DATA_PORT & (~(0x0F << LCD_DATA_D4))) | ((character & 0x0F) << LCD_DATA_D4);
     dc8:	85 b1       	in	r24, 0x05	; 5
     dca:	94 2f       	mov	r25, r20
     dcc:	9f 70       	andi	r25, 0x0F	; 15
     dce:	80 7f       	andi	r24, 0xF0	; 240
     dd0:	89 2b       	or	r24, r25
     dd2:	85 b9       	out	0x05, r24	; 5
		lcdCursorMoveNextLine();
	}else{
		lcdConfiguration.column++;
		LCD_DATA_PORT = (LCD_DATA_PORT & (~(0x0F << LCD_DATA_D4))) | ((character >> 4) << LCD_DATA_D4);
		do{
			setBit(LCD_CONTROL_PORT, LCD_CONTROL_RS);
     dd4:	2d 9a       	sbi	0x05, 5	; 5
     dd6:	82 2f       	mov	r24, r18
     dd8:	8a 95       	dec	r24
     dda:	f1 f7       	brne	.-4      	; 0xdd8 <lcdWriteStd+0x96>
			_delay_us(1);
			setBit(LCD_CONTROL_PORT, LCD_CONTROL_E);
     ddc:	2c 9a       	sbi	0x05, 4	; 5
     dde:	2a 95       	dec	r18
     de0:	f1 f7       	brne	.-4      	; 0xdde <lcdWriteStd+0x9c>
			_delay_us(1);
			clrBit(LCD_CONTROL_PORT, LCD_CONTROL_E);
     de2:	2c 98       	cbi	0x05, 4	; 5
     de4:	3a 95       	dec	r19
     de6:	f1 f7       	brne	.-4      	; 0xde4 <lcdWriteStd+0xa2>
			_delay_us(45);
			LCD_DATA_PORT = (LCD_DATA_PORT & (~(0x0F << LCD_DATA_D4))) | ((character & 0x0F) << LCD_DATA_D4);
     de8:	85 b1       	in	r24, 0x05	; 5
     dea:	80 7f       	andi	r24, 0xF0	; 240
     dec:	98 2b       	or	r25, r24
     dee:	95 b9       	out	0x05, r25	; 5
			i--;
		}while(i > 0);
	}
	return 0;
}
     df0:	80 e0       	ldi	r24, 0x00	; 0
     df2:	90 e0       	ldi	r25, 0x00	; 0
     df4:	1f 91       	pop	r17
     df6:	08 95       	ret

00000df8 <__mulsi3>:
     df8:	62 9f       	mul	r22, r18
     dfa:	d0 01       	movw	r26, r0
     dfc:	73 9f       	mul	r23, r19
     dfe:	f0 01       	movw	r30, r0
     e00:	82 9f       	mul	r24, r18
     e02:	e0 0d       	add	r30, r0
     e04:	f1 1d       	adc	r31, r1
     e06:	64 9f       	mul	r22, r20
     e08:	e0 0d       	add	r30, r0
     e0a:	f1 1d       	adc	r31, r1
     e0c:	92 9f       	mul	r25, r18
     e0e:	f0 0d       	add	r31, r0
     e10:	83 9f       	mul	r24, r19
     e12:	f0 0d       	add	r31, r0
     e14:	74 9f       	mul	r23, r20
     e16:	f0 0d       	add	r31, r0
     e18:	65 9f       	mul	r22, r21
     e1a:	f0 0d       	add	r31, r0
     e1c:	99 27       	eor	r25, r25
     e1e:	72 9f       	mul	r23, r18
     e20:	b0 0d       	add	r27, r0
     e22:	e1 1d       	adc	r30, r1
     e24:	f9 1f       	adc	r31, r25
     e26:	63 9f       	mul	r22, r19
     e28:	b0 0d       	add	r27, r0
     e2a:	e1 1d       	adc	r30, r1
     e2c:	f9 1f       	adc	r31, r25
     e2e:	bd 01       	movw	r22, r26
     e30:	cf 01       	movw	r24, r30
     e32:	11 24       	eor	r1, r1
     e34:	08 95       	ret

00000e36 <__udivmodhi4>:
     e36:	aa 1b       	sub	r26, r26
     e38:	bb 1b       	sub	r27, r27
     e3a:	51 e1       	ldi	r21, 0x11	; 17
     e3c:	07 c0       	rjmp	.+14     	; 0xe4c <__udivmodhi4_ep>

00000e3e <__udivmodhi4_loop>:
     e3e:	aa 1f       	adc	r26, r26
     e40:	bb 1f       	adc	r27, r27
     e42:	a6 17       	cp	r26, r22
     e44:	b7 07       	cpc	r27, r23
     e46:	10 f0       	brcs	.+4      	; 0xe4c <__udivmodhi4_ep>
     e48:	a6 1b       	sub	r26, r22
     e4a:	b7 0b       	sbc	r27, r23

00000e4c <__udivmodhi4_ep>:
     e4c:	88 1f       	adc	r24, r24
     e4e:	99 1f       	adc	r25, r25
     e50:	5a 95       	dec	r21
     e52:	a9 f7       	brne	.-22     	; 0xe3e <__udivmodhi4_loop>
     e54:	80 95       	com	r24
     e56:	90 95       	com	r25
     e58:	bc 01       	movw	r22, r24
     e5a:	cd 01       	movw	r24, r26
     e5c:	08 95       	ret

00000e5e <__udivmodsi4>:
     e5e:	a1 e2       	ldi	r26, 0x21	; 33
     e60:	1a 2e       	mov	r1, r26
     e62:	aa 1b       	sub	r26, r26
     e64:	bb 1b       	sub	r27, r27
     e66:	fd 01       	movw	r30, r26
     e68:	0d c0       	rjmp	.+26     	; 0xe84 <__udivmodsi4_ep>

00000e6a <__udivmodsi4_loop>:
     e6a:	aa 1f       	adc	r26, r26
     e6c:	bb 1f       	adc	r27, r27
     e6e:	ee 1f       	adc	r30, r30
     e70:	ff 1f       	adc	r31, r31
     e72:	a2 17       	cp	r26, r18
     e74:	b3 07       	cpc	r27, r19
     e76:	e4 07       	cpc	r30, r20
     e78:	f5 07       	cpc	r31, r21
     e7a:	20 f0       	brcs	.+8      	; 0xe84 <__udivmodsi4_ep>
     e7c:	a2 1b       	sub	r26, r18
     e7e:	b3 0b       	sbc	r27, r19
     e80:	e4 0b       	sbc	r30, r20
     e82:	f5 0b       	sbc	r31, r21

00000e84 <__udivmodsi4_ep>:
     e84:	66 1f       	adc	r22, r22
     e86:	77 1f       	adc	r23, r23
     e88:	88 1f       	adc	r24, r24
     e8a:	99 1f       	adc	r25, r25
     e8c:	1a 94       	dec	r1
     e8e:	69 f7       	brne	.-38     	; 0xe6a <__udivmodsi4_loop>
     e90:	60 95       	com	r22
     e92:	70 95       	com	r23
     e94:	80 95       	com	r24
     e96:	90 95       	com	r25
     e98:	9b 01       	movw	r18, r22
     e9a:	ac 01       	movw	r20, r24
     e9c:	bd 01       	movw	r22, r26
     e9e:	cf 01       	movw	r24, r30
     ea0:	08 95       	ret

00000ea2 <printf>:
     ea2:	a0 e0       	ldi	r26, 0x00	; 0
     ea4:	b0 e0       	ldi	r27, 0x00	; 0
     ea6:	e7 e5       	ldi	r30, 0x57	; 87
     ea8:	f7 e0       	ldi	r31, 0x07	; 7
     eaa:	0c 94 f3 09 	jmp	0x13e6	; 0x13e6 <__prologue_saves__+0x20>
     eae:	fe 01       	movw	r30, r28
     eb0:	35 96       	adiw	r30, 0x05	; 5
     eb2:	61 91       	ld	r22, Z+
     eb4:	71 91       	ld	r23, Z+
     eb6:	80 91 9a 01 	lds	r24, 0x019A
     eba:	90 91 9b 01 	lds	r25, 0x019B
     ebe:	af 01       	movw	r20, r30
     ec0:	0e 94 66 07 	call	0xecc	; 0xecc <vfprintf>
     ec4:	20 96       	adiw	r28, 0x00	; 0
     ec6:	e2 e0       	ldi	r30, 0x02	; 2
     ec8:	0c 94 0f 0a 	jmp	0x141e	; 0x141e <__epilogue_restores__+0x20>

00000ecc <vfprintf>:
     ecc:	ab e0       	ldi	r26, 0x0B	; 11
     ece:	b0 e0       	ldi	r27, 0x00	; 0
     ed0:	ec e6       	ldi	r30, 0x6C	; 108
     ed2:	f7 e0       	ldi	r31, 0x07	; 7
     ed4:	0c 94 e3 09 	jmp	0x13c6	; 0x13c6 <__prologue_saves__>
     ed8:	3c 01       	movw	r6, r24
     eda:	2b 01       	movw	r4, r22
     edc:	5a 01       	movw	r10, r20
     ede:	fc 01       	movw	r30, r24
     ee0:	17 82       	std	Z+7, r1	; 0x07
     ee2:	16 82       	std	Z+6, r1	; 0x06
     ee4:	83 81       	ldd	r24, Z+3	; 0x03
     ee6:	81 fd       	sbrc	r24, 1
     ee8:	03 c0       	rjmp	.+6      	; 0xef0 <vfprintf+0x24>
     eea:	6f ef       	ldi	r22, 0xFF	; 255
     eec:	7f ef       	ldi	r23, 0xFF	; 255
     eee:	c6 c1       	rjmp	.+908    	; 0x127c <vfprintf+0x3b0>
     ef0:	9a e0       	ldi	r25, 0x0A	; 10
     ef2:	89 2e       	mov	r8, r25
     ef4:	1e 01       	movw	r2, r28
     ef6:	08 94       	sec
     ef8:	21 1c       	adc	r2, r1
     efa:	31 1c       	adc	r3, r1
     efc:	f3 01       	movw	r30, r6
     efe:	23 81       	ldd	r18, Z+3	; 0x03
     f00:	f2 01       	movw	r30, r4
     f02:	23 fd       	sbrc	r18, 3
     f04:	85 91       	lpm	r24, Z+
     f06:	23 ff       	sbrs	r18, 3
     f08:	81 91       	ld	r24, Z+
     f0a:	2f 01       	movw	r4, r30
     f0c:	88 23       	and	r24, r24
     f0e:	09 f4       	brne	.+2      	; 0xf12 <vfprintf+0x46>
     f10:	b2 c1       	rjmp	.+868    	; 0x1276 <vfprintf+0x3aa>
     f12:	85 32       	cpi	r24, 0x25	; 37
     f14:	39 f4       	brne	.+14     	; 0xf24 <vfprintf+0x58>
     f16:	23 fd       	sbrc	r18, 3
     f18:	85 91       	lpm	r24, Z+
     f1a:	23 ff       	sbrs	r18, 3
     f1c:	81 91       	ld	r24, Z+
     f1e:	2f 01       	movw	r4, r30
     f20:	85 32       	cpi	r24, 0x25	; 37
     f22:	29 f4       	brne	.+10     	; 0xf2e <vfprintf+0x62>
     f24:	90 e0       	ldi	r25, 0x00	; 0
     f26:	b3 01       	movw	r22, r6
     f28:	0e 94 59 09 	call	0x12b2	; 0x12b2 <fputc>
     f2c:	e7 cf       	rjmp	.-50     	; 0xefc <vfprintf+0x30>
     f2e:	98 2f       	mov	r25, r24
     f30:	ff 24       	eor	r15, r15
     f32:	ee 24       	eor	r14, r14
     f34:	99 24       	eor	r9, r9
     f36:	ff e1       	ldi	r31, 0x1F	; 31
     f38:	ff 15       	cp	r31, r15
     f3a:	d0 f0       	brcs	.+52     	; 0xf70 <vfprintf+0xa4>
     f3c:	9b 32       	cpi	r25, 0x2B	; 43
     f3e:	69 f0       	breq	.+26     	; 0xf5a <vfprintf+0x8e>
     f40:	9c 32       	cpi	r25, 0x2C	; 44
     f42:	28 f4       	brcc	.+10     	; 0xf4e <vfprintf+0x82>
     f44:	90 32       	cpi	r25, 0x20	; 32
     f46:	59 f0       	breq	.+22     	; 0xf5e <vfprintf+0x92>
     f48:	93 32       	cpi	r25, 0x23	; 35
     f4a:	91 f4       	brne	.+36     	; 0xf70 <vfprintf+0xa4>
     f4c:	0e c0       	rjmp	.+28     	; 0xf6a <vfprintf+0x9e>
     f4e:	9d 32       	cpi	r25, 0x2D	; 45
     f50:	49 f0       	breq	.+18     	; 0xf64 <vfprintf+0x98>
     f52:	90 33       	cpi	r25, 0x30	; 48
     f54:	69 f4       	brne	.+26     	; 0xf70 <vfprintf+0xa4>
     f56:	41 e0       	ldi	r20, 0x01	; 1
     f58:	24 c0       	rjmp	.+72     	; 0xfa2 <vfprintf+0xd6>
     f5a:	52 e0       	ldi	r21, 0x02	; 2
     f5c:	f5 2a       	or	r15, r21
     f5e:	84 e0       	ldi	r24, 0x04	; 4
     f60:	f8 2a       	or	r15, r24
     f62:	28 c0       	rjmp	.+80     	; 0xfb4 <vfprintf+0xe8>
     f64:	98 e0       	ldi	r25, 0x08	; 8
     f66:	f9 2a       	or	r15, r25
     f68:	25 c0       	rjmp	.+74     	; 0xfb4 <vfprintf+0xe8>
     f6a:	e0 e1       	ldi	r30, 0x10	; 16
     f6c:	fe 2a       	or	r15, r30
     f6e:	22 c0       	rjmp	.+68     	; 0xfb4 <vfprintf+0xe8>
     f70:	f7 fc       	sbrc	r15, 7
     f72:	29 c0       	rjmp	.+82     	; 0xfc6 <vfprintf+0xfa>
     f74:	89 2f       	mov	r24, r25
     f76:	80 53       	subi	r24, 0x30	; 48
     f78:	8a 30       	cpi	r24, 0x0A	; 10
     f7a:	70 f4       	brcc	.+28     	; 0xf98 <vfprintf+0xcc>
     f7c:	f6 fe       	sbrs	r15, 6
     f7e:	05 c0       	rjmp	.+10     	; 0xf8a <vfprintf+0xbe>
     f80:	98 9c       	mul	r9, r8
     f82:	90 2c       	mov	r9, r0
     f84:	11 24       	eor	r1, r1
     f86:	98 0e       	add	r9, r24
     f88:	15 c0       	rjmp	.+42     	; 0xfb4 <vfprintf+0xe8>
     f8a:	e8 9c       	mul	r14, r8
     f8c:	e0 2c       	mov	r14, r0
     f8e:	11 24       	eor	r1, r1
     f90:	e8 0e       	add	r14, r24
     f92:	f0 e2       	ldi	r31, 0x20	; 32
     f94:	ff 2a       	or	r15, r31
     f96:	0e c0       	rjmp	.+28     	; 0xfb4 <vfprintf+0xe8>
     f98:	9e 32       	cpi	r25, 0x2E	; 46
     f9a:	29 f4       	brne	.+10     	; 0xfa6 <vfprintf+0xda>
     f9c:	f6 fc       	sbrc	r15, 6
     f9e:	6b c1       	rjmp	.+726    	; 0x1276 <vfprintf+0x3aa>
     fa0:	40 e4       	ldi	r20, 0x40	; 64
     fa2:	f4 2a       	or	r15, r20
     fa4:	07 c0       	rjmp	.+14     	; 0xfb4 <vfprintf+0xe8>
     fa6:	9c 36       	cpi	r25, 0x6C	; 108
     fa8:	19 f4       	brne	.+6      	; 0xfb0 <vfprintf+0xe4>
     faa:	50 e8       	ldi	r21, 0x80	; 128
     fac:	f5 2a       	or	r15, r21
     fae:	02 c0       	rjmp	.+4      	; 0xfb4 <vfprintf+0xe8>
     fb0:	98 36       	cpi	r25, 0x68	; 104
     fb2:	49 f4       	brne	.+18     	; 0xfc6 <vfprintf+0xfa>
     fb4:	f2 01       	movw	r30, r4
     fb6:	23 fd       	sbrc	r18, 3
     fb8:	95 91       	lpm	r25, Z+
     fba:	23 ff       	sbrs	r18, 3
     fbc:	91 91       	ld	r25, Z+
     fbe:	2f 01       	movw	r4, r30
     fc0:	99 23       	and	r25, r25
     fc2:	09 f0       	breq	.+2      	; 0xfc6 <vfprintf+0xfa>
     fc4:	b8 cf       	rjmp	.-144    	; 0xf36 <vfprintf+0x6a>
     fc6:	89 2f       	mov	r24, r25
     fc8:	85 54       	subi	r24, 0x45	; 69
     fca:	83 30       	cpi	r24, 0x03	; 3
     fcc:	18 f0       	brcs	.+6      	; 0xfd4 <vfprintf+0x108>
     fce:	80 52       	subi	r24, 0x20	; 32
     fd0:	83 30       	cpi	r24, 0x03	; 3
     fd2:	38 f4       	brcc	.+14     	; 0xfe2 <vfprintf+0x116>
     fd4:	44 e0       	ldi	r20, 0x04	; 4
     fd6:	50 e0       	ldi	r21, 0x00	; 0
     fd8:	a4 0e       	add	r10, r20
     fda:	b5 1e       	adc	r11, r21
     fdc:	5f e3       	ldi	r21, 0x3F	; 63
     fde:	59 83       	std	Y+1, r21	; 0x01
     fe0:	0f c0       	rjmp	.+30     	; 0x1000 <vfprintf+0x134>
     fe2:	93 36       	cpi	r25, 0x63	; 99
     fe4:	31 f0       	breq	.+12     	; 0xff2 <vfprintf+0x126>
     fe6:	93 37       	cpi	r25, 0x73	; 115
     fe8:	79 f0       	breq	.+30     	; 0x1008 <vfprintf+0x13c>
     fea:	93 35       	cpi	r25, 0x53	; 83
     fec:	09 f0       	breq	.+2      	; 0xff0 <vfprintf+0x124>
     fee:	56 c0       	rjmp	.+172    	; 0x109c <vfprintf+0x1d0>
     ff0:	20 c0       	rjmp	.+64     	; 0x1032 <vfprintf+0x166>
     ff2:	f5 01       	movw	r30, r10
     ff4:	80 81       	ld	r24, Z
     ff6:	89 83       	std	Y+1, r24	; 0x01
     ff8:	42 e0       	ldi	r20, 0x02	; 2
     ffa:	50 e0       	ldi	r21, 0x00	; 0
     ffc:	a4 0e       	add	r10, r20
     ffe:	b5 1e       	adc	r11, r21
    1000:	61 01       	movw	r12, r2
    1002:	01 e0       	ldi	r16, 0x01	; 1
    1004:	10 e0       	ldi	r17, 0x00	; 0
    1006:	12 c0       	rjmp	.+36     	; 0x102c <vfprintf+0x160>
    1008:	f5 01       	movw	r30, r10
    100a:	c0 80       	ld	r12, Z
    100c:	d1 80       	ldd	r13, Z+1	; 0x01
    100e:	f6 fc       	sbrc	r15, 6
    1010:	03 c0       	rjmp	.+6      	; 0x1018 <vfprintf+0x14c>
    1012:	6f ef       	ldi	r22, 0xFF	; 255
    1014:	7f ef       	ldi	r23, 0xFF	; 255
    1016:	02 c0       	rjmp	.+4      	; 0x101c <vfprintf+0x150>
    1018:	69 2d       	mov	r22, r9
    101a:	70 e0       	ldi	r23, 0x00	; 0
    101c:	42 e0       	ldi	r20, 0x02	; 2
    101e:	50 e0       	ldi	r21, 0x00	; 0
    1020:	a4 0e       	add	r10, r20
    1022:	b5 1e       	adc	r11, r21
    1024:	c6 01       	movw	r24, r12
    1026:	0e 94 4e 09 	call	0x129c	; 0x129c <strnlen>
    102a:	8c 01       	movw	r16, r24
    102c:	5f e7       	ldi	r21, 0x7F	; 127
    102e:	f5 22       	and	r15, r21
    1030:	14 c0       	rjmp	.+40     	; 0x105a <vfprintf+0x18e>
    1032:	f5 01       	movw	r30, r10
    1034:	c0 80       	ld	r12, Z
    1036:	d1 80       	ldd	r13, Z+1	; 0x01
    1038:	f6 fc       	sbrc	r15, 6
    103a:	03 c0       	rjmp	.+6      	; 0x1042 <vfprintf+0x176>
    103c:	6f ef       	ldi	r22, 0xFF	; 255
    103e:	7f ef       	ldi	r23, 0xFF	; 255
    1040:	02 c0       	rjmp	.+4      	; 0x1046 <vfprintf+0x17a>
    1042:	69 2d       	mov	r22, r9
    1044:	70 e0       	ldi	r23, 0x00	; 0
    1046:	42 e0       	ldi	r20, 0x02	; 2
    1048:	50 e0       	ldi	r21, 0x00	; 0
    104a:	a4 0e       	add	r10, r20
    104c:	b5 1e       	adc	r11, r21
    104e:	c6 01       	movw	r24, r12
    1050:	0e 94 43 09 	call	0x1286	; 0x1286 <strnlen_P>
    1054:	8c 01       	movw	r16, r24
    1056:	50 e8       	ldi	r21, 0x80	; 128
    1058:	f5 2a       	or	r15, r21
    105a:	f3 fe       	sbrs	r15, 3
    105c:	07 c0       	rjmp	.+14     	; 0x106c <vfprintf+0x1a0>
    105e:	1a c0       	rjmp	.+52     	; 0x1094 <vfprintf+0x1c8>
    1060:	80 e2       	ldi	r24, 0x20	; 32
    1062:	90 e0       	ldi	r25, 0x00	; 0
    1064:	b3 01       	movw	r22, r6
    1066:	0e 94 59 09 	call	0x12b2	; 0x12b2 <fputc>
    106a:	ea 94       	dec	r14
    106c:	8e 2d       	mov	r24, r14
    106e:	90 e0       	ldi	r25, 0x00	; 0
    1070:	08 17       	cp	r16, r24
    1072:	19 07       	cpc	r17, r25
    1074:	a8 f3       	brcs	.-22     	; 0x1060 <vfprintf+0x194>
    1076:	0e c0       	rjmp	.+28     	; 0x1094 <vfprintf+0x1c8>
    1078:	f6 01       	movw	r30, r12
    107a:	f7 fc       	sbrc	r15, 7
    107c:	85 91       	lpm	r24, Z+
    107e:	f7 fe       	sbrs	r15, 7
    1080:	81 91       	ld	r24, Z+
    1082:	6f 01       	movw	r12, r30
    1084:	90 e0       	ldi	r25, 0x00	; 0
    1086:	b3 01       	movw	r22, r6
    1088:	0e 94 59 09 	call	0x12b2	; 0x12b2 <fputc>
    108c:	e1 10       	cpse	r14, r1
    108e:	ea 94       	dec	r14
    1090:	01 50       	subi	r16, 0x01	; 1
    1092:	10 40       	sbci	r17, 0x00	; 0
    1094:	01 15       	cp	r16, r1
    1096:	11 05       	cpc	r17, r1
    1098:	79 f7       	brne	.-34     	; 0x1078 <vfprintf+0x1ac>
    109a:	ea c0       	rjmp	.+468    	; 0x1270 <vfprintf+0x3a4>
    109c:	94 36       	cpi	r25, 0x64	; 100
    109e:	11 f0       	breq	.+4      	; 0x10a4 <vfprintf+0x1d8>
    10a0:	99 36       	cpi	r25, 0x69	; 105
    10a2:	69 f5       	brne	.+90     	; 0x10fe <vfprintf+0x232>
    10a4:	f7 fe       	sbrs	r15, 7
    10a6:	08 c0       	rjmp	.+16     	; 0x10b8 <vfprintf+0x1ec>
    10a8:	f5 01       	movw	r30, r10
    10aa:	20 81       	ld	r18, Z
    10ac:	31 81       	ldd	r19, Z+1	; 0x01
    10ae:	42 81       	ldd	r20, Z+2	; 0x02
    10b0:	53 81       	ldd	r21, Z+3	; 0x03
    10b2:	84 e0       	ldi	r24, 0x04	; 4
    10b4:	90 e0       	ldi	r25, 0x00	; 0
    10b6:	0a c0       	rjmp	.+20     	; 0x10cc <vfprintf+0x200>
    10b8:	f5 01       	movw	r30, r10
    10ba:	80 81       	ld	r24, Z
    10bc:	91 81       	ldd	r25, Z+1	; 0x01
    10be:	9c 01       	movw	r18, r24
    10c0:	44 27       	eor	r20, r20
    10c2:	37 fd       	sbrc	r19, 7
    10c4:	40 95       	com	r20
    10c6:	54 2f       	mov	r21, r20
    10c8:	82 e0       	ldi	r24, 0x02	; 2
    10ca:	90 e0       	ldi	r25, 0x00	; 0
    10cc:	a8 0e       	add	r10, r24
    10ce:	b9 1e       	adc	r11, r25
    10d0:	9f e6       	ldi	r25, 0x6F	; 111
    10d2:	f9 22       	and	r15, r25
    10d4:	57 ff       	sbrs	r21, 7
    10d6:	09 c0       	rjmp	.+18     	; 0x10ea <vfprintf+0x21e>
    10d8:	50 95       	com	r21
    10da:	40 95       	com	r20
    10dc:	30 95       	com	r19
    10de:	21 95       	neg	r18
    10e0:	3f 4f       	sbci	r19, 0xFF	; 255
    10e2:	4f 4f       	sbci	r20, 0xFF	; 255
    10e4:	5f 4f       	sbci	r21, 0xFF	; 255
    10e6:	e0 e8       	ldi	r30, 0x80	; 128
    10e8:	fe 2a       	or	r15, r30
    10ea:	ca 01       	movw	r24, r20
    10ec:	b9 01       	movw	r22, r18
    10ee:	a1 01       	movw	r20, r2
    10f0:	2a e0       	ldi	r18, 0x0A	; 10
    10f2:	30 e0       	ldi	r19, 0x00	; 0
    10f4:	0e 94 85 09 	call	0x130a	; 0x130a <__ultoa_invert>
    10f8:	d8 2e       	mov	r13, r24
    10fa:	d2 18       	sub	r13, r2
    10fc:	40 c0       	rjmp	.+128    	; 0x117e <vfprintf+0x2b2>
    10fe:	95 37       	cpi	r25, 0x75	; 117
    1100:	29 f4       	brne	.+10     	; 0x110c <vfprintf+0x240>
    1102:	1f 2d       	mov	r17, r15
    1104:	1f 7e       	andi	r17, 0xEF	; 239
    1106:	2a e0       	ldi	r18, 0x0A	; 10
    1108:	30 e0       	ldi	r19, 0x00	; 0
    110a:	1d c0       	rjmp	.+58     	; 0x1146 <vfprintf+0x27a>
    110c:	1f 2d       	mov	r17, r15
    110e:	19 7f       	andi	r17, 0xF9	; 249
    1110:	9f 36       	cpi	r25, 0x6F	; 111
    1112:	61 f0       	breq	.+24     	; 0x112c <vfprintf+0x260>
    1114:	90 37       	cpi	r25, 0x70	; 112
    1116:	20 f4       	brcc	.+8      	; 0x1120 <vfprintf+0x254>
    1118:	98 35       	cpi	r25, 0x58	; 88
    111a:	09 f0       	breq	.+2      	; 0x111e <vfprintf+0x252>
    111c:	ac c0       	rjmp	.+344    	; 0x1276 <vfprintf+0x3aa>
    111e:	0f c0       	rjmp	.+30     	; 0x113e <vfprintf+0x272>
    1120:	90 37       	cpi	r25, 0x70	; 112
    1122:	39 f0       	breq	.+14     	; 0x1132 <vfprintf+0x266>
    1124:	98 37       	cpi	r25, 0x78	; 120
    1126:	09 f0       	breq	.+2      	; 0x112a <vfprintf+0x25e>
    1128:	a6 c0       	rjmp	.+332    	; 0x1276 <vfprintf+0x3aa>
    112a:	04 c0       	rjmp	.+8      	; 0x1134 <vfprintf+0x268>
    112c:	28 e0       	ldi	r18, 0x08	; 8
    112e:	30 e0       	ldi	r19, 0x00	; 0
    1130:	0a c0       	rjmp	.+20     	; 0x1146 <vfprintf+0x27a>
    1132:	10 61       	ori	r17, 0x10	; 16
    1134:	14 fd       	sbrc	r17, 4
    1136:	14 60       	ori	r17, 0x04	; 4
    1138:	20 e1       	ldi	r18, 0x10	; 16
    113a:	30 e0       	ldi	r19, 0x00	; 0
    113c:	04 c0       	rjmp	.+8      	; 0x1146 <vfprintf+0x27a>
    113e:	14 fd       	sbrc	r17, 4
    1140:	16 60       	ori	r17, 0x06	; 6
    1142:	20 e1       	ldi	r18, 0x10	; 16
    1144:	32 e0       	ldi	r19, 0x02	; 2
    1146:	17 ff       	sbrs	r17, 7
    1148:	08 c0       	rjmp	.+16     	; 0x115a <vfprintf+0x28e>
    114a:	f5 01       	movw	r30, r10
    114c:	60 81       	ld	r22, Z
    114e:	71 81       	ldd	r23, Z+1	; 0x01
    1150:	82 81       	ldd	r24, Z+2	; 0x02
    1152:	93 81       	ldd	r25, Z+3	; 0x03
    1154:	44 e0       	ldi	r20, 0x04	; 4
    1156:	50 e0       	ldi	r21, 0x00	; 0
    1158:	08 c0       	rjmp	.+16     	; 0x116a <vfprintf+0x29e>
    115a:	f5 01       	movw	r30, r10
    115c:	80 81       	ld	r24, Z
    115e:	91 81       	ldd	r25, Z+1	; 0x01
    1160:	bc 01       	movw	r22, r24
    1162:	80 e0       	ldi	r24, 0x00	; 0
    1164:	90 e0       	ldi	r25, 0x00	; 0
    1166:	42 e0       	ldi	r20, 0x02	; 2
    1168:	50 e0       	ldi	r21, 0x00	; 0
    116a:	a4 0e       	add	r10, r20
    116c:	b5 1e       	adc	r11, r21
    116e:	a1 01       	movw	r20, r2
    1170:	0e 94 85 09 	call	0x130a	; 0x130a <__ultoa_invert>
    1174:	d8 2e       	mov	r13, r24
    1176:	d2 18       	sub	r13, r2
    1178:	8f e7       	ldi	r24, 0x7F	; 127
    117a:	f8 2e       	mov	r15, r24
    117c:	f1 22       	and	r15, r17
    117e:	f6 fe       	sbrs	r15, 6
    1180:	0b c0       	rjmp	.+22     	; 0x1198 <vfprintf+0x2cc>
    1182:	5e ef       	ldi	r21, 0xFE	; 254
    1184:	f5 22       	and	r15, r21
    1186:	d9 14       	cp	r13, r9
    1188:	38 f4       	brcc	.+14     	; 0x1198 <vfprintf+0x2cc>
    118a:	f4 fe       	sbrs	r15, 4
    118c:	07 c0       	rjmp	.+14     	; 0x119c <vfprintf+0x2d0>
    118e:	f2 fc       	sbrc	r15, 2
    1190:	05 c0       	rjmp	.+10     	; 0x119c <vfprintf+0x2d0>
    1192:	8f ee       	ldi	r24, 0xEF	; 239
    1194:	f8 22       	and	r15, r24
    1196:	02 c0       	rjmp	.+4      	; 0x119c <vfprintf+0x2d0>
    1198:	1d 2d       	mov	r17, r13
    119a:	01 c0       	rjmp	.+2      	; 0x119e <vfprintf+0x2d2>
    119c:	19 2d       	mov	r17, r9
    119e:	f4 fe       	sbrs	r15, 4
    11a0:	0d c0       	rjmp	.+26     	; 0x11bc <vfprintf+0x2f0>
    11a2:	fe 01       	movw	r30, r28
    11a4:	ed 0d       	add	r30, r13
    11a6:	f1 1d       	adc	r31, r1
    11a8:	80 81       	ld	r24, Z
    11aa:	80 33       	cpi	r24, 0x30	; 48
    11ac:	19 f4       	brne	.+6      	; 0x11b4 <vfprintf+0x2e8>
    11ae:	99 ee       	ldi	r25, 0xE9	; 233
    11b0:	f9 22       	and	r15, r25
    11b2:	08 c0       	rjmp	.+16     	; 0x11c4 <vfprintf+0x2f8>
    11b4:	1f 5f       	subi	r17, 0xFF	; 255
    11b6:	f2 fe       	sbrs	r15, 2
    11b8:	05 c0       	rjmp	.+10     	; 0x11c4 <vfprintf+0x2f8>
    11ba:	03 c0       	rjmp	.+6      	; 0x11c2 <vfprintf+0x2f6>
    11bc:	8f 2d       	mov	r24, r15
    11be:	86 78       	andi	r24, 0x86	; 134
    11c0:	09 f0       	breq	.+2      	; 0x11c4 <vfprintf+0x2f8>
    11c2:	1f 5f       	subi	r17, 0xFF	; 255
    11c4:	0f 2d       	mov	r16, r15
    11c6:	f3 fc       	sbrc	r15, 3
    11c8:	14 c0       	rjmp	.+40     	; 0x11f2 <vfprintf+0x326>
    11ca:	f0 fe       	sbrs	r15, 0
    11cc:	0f c0       	rjmp	.+30     	; 0x11ec <vfprintf+0x320>
    11ce:	1e 15       	cp	r17, r14
    11d0:	10 f0       	brcs	.+4      	; 0x11d6 <vfprintf+0x30a>
    11d2:	9d 2c       	mov	r9, r13
    11d4:	0b c0       	rjmp	.+22     	; 0x11ec <vfprintf+0x320>
    11d6:	9d 2c       	mov	r9, r13
    11d8:	9e 0c       	add	r9, r14
    11da:	91 1a       	sub	r9, r17
    11dc:	1e 2d       	mov	r17, r14
    11de:	06 c0       	rjmp	.+12     	; 0x11ec <vfprintf+0x320>
    11e0:	80 e2       	ldi	r24, 0x20	; 32
    11e2:	90 e0       	ldi	r25, 0x00	; 0
    11e4:	b3 01       	movw	r22, r6
    11e6:	0e 94 59 09 	call	0x12b2	; 0x12b2 <fputc>
    11ea:	1f 5f       	subi	r17, 0xFF	; 255
    11ec:	1e 15       	cp	r17, r14
    11ee:	c0 f3       	brcs	.-16     	; 0x11e0 <vfprintf+0x314>
    11f0:	04 c0       	rjmp	.+8      	; 0x11fa <vfprintf+0x32e>
    11f2:	1e 15       	cp	r17, r14
    11f4:	10 f4       	brcc	.+4      	; 0x11fa <vfprintf+0x32e>
    11f6:	e1 1a       	sub	r14, r17
    11f8:	01 c0       	rjmp	.+2      	; 0x11fc <vfprintf+0x330>
    11fa:	ee 24       	eor	r14, r14
    11fc:	04 ff       	sbrs	r16, 4
    11fe:	0f c0       	rjmp	.+30     	; 0x121e <vfprintf+0x352>
    1200:	80 e3       	ldi	r24, 0x30	; 48
    1202:	90 e0       	ldi	r25, 0x00	; 0
    1204:	b3 01       	movw	r22, r6
    1206:	0e 94 59 09 	call	0x12b2	; 0x12b2 <fputc>
    120a:	02 ff       	sbrs	r16, 2
    120c:	1d c0       	rjmp	.+58     	; 0x1248 <vfprintf+0x37c>
    120e:	01 fd       	sbrc	r16, 1
    1210:	03 c0       	rjmp	.+6      	; 0x1218 <vfprintf+0x34c>
    1212:	88 e7       	ldi	r24, 0x78	; 120
    1214:	90 e0       	ldi	r25, 0x00	; 0
    1216:	0e c0       	rjmp	.+28     	; 0x1234 <vfprintf+0x368>
    1218:	88 e5       	ldi	r24, 0x58	; 88
    121a:	90 e0       	ldi	r25, 0x00	; 0
    121c:	0b c0       	rjmp	.+22     	; 0x1234 <vfprintf+0x368>
    121e:	80 2f       	mov	r24, r16
    1220:	86 78       	andi	r24, 0x86	; 134
    1222:	91 f0       	breq	.+36     	; 0x1248 <vfprintf+0x37c>
    1224:	01 ff       	sbrs	r16, 1
    1226:	02 c0       	rjmp	.+4      	; 0x122c <vfprintf+0x360>
    1228:	8b e2       	ldi	r24, 0x2B	; 43
    122a:	01 c0       	rjmp	.+2      	; 0x122e <vfprintf+0x362>
    122c:	80 e2       	ldi	r24, 0x20	; 32
    122e:	f7 fc       	sbrc	r15, 7
    1230:	8d e2       	ldi	r24, 0x2D	; 45
    1232:	90 e0       	ldi	r25, 0x00	; 0
    1234:	b3 01       	movw	r22, r6
    1236:	0e 94 59 09 	call	0x12b2	; 0x12b2 <fputc>
    123a:	06 c0       	rjmp	.+12     	; 0x1248 <vfprintf+0x37c>
    123c:	80 e3       	ldi	r24, 0x30	; 48
    123e:	90 e0       	ldi	r25, 0x00	; 0
    1240:	b3 01       	movw	r22, r6
    1242:	0e 94 59 09 	call	0x12b2	; 0x12b2 <fputc>
    1246:	9a 94       	dec	r9
    1248:	d9 14       	cp	r13, r9
    124a:	c0 f3       	brcs	.-16     	; 0x123c <vfprintf+0x370>
    124c:	da 94       	dec	r13
    124e:	f1 01       	movw	r30, r2
    1250:	ed 0d       	add	r30, r13
    1252:	f1 1d       	adc	r31, r1
    1254:	80 81       	ld	r24, Z
    1256:	90 e0       	ldi	r25, 0x00	; 0
    1258:	b3 01       	movw	r22, r6
    125a:	0e 94 59 09 	call	0x12b2	; 0x12b2 <fputc>
    125e:	dd 20       	and	r13, r13
    1260:	a9 f7       	brne	.-22     	; 0x124c <vfprintf+0x380>
    1262:	06 c0       	rjmp	.+12     	; 0x1270 <vfprintf+0x3a4>
    1264:	80 e2       	ldi	r24, 0x20	; 32
    1266:	90 e0       	ldi	r25, 0x00	; 0
    1268:	b3 01       	movw	r22, r6
    126a:	0e 94 59 09 	call	0x12b2	; 0x12b2 <fputc>
    126e:	ea 94       	dec	r14
    1270:	ee 20       	and	r14, r14
    1272:	c1 f7       	brne	.-16     	; 0x1264 <vfprintf+0x398>
    1274:	43 ce       	rjmp	.-890    	; 0xefc <vfprintf+0x30>
    1276:	f3 01       	movw	r30, r6
    1278:	66 81       	ldd	r22, Z+6	; 0x06
    127a:	77 81       	ldd	r23, Z+7	; 0x07
    127c:	cb 01       	movw	r24, r22
    127e:	2b 96       	adiw	r28, 0x0b	; 11
    1280:	e2 e1       	ldi	r30, 0x12	; 18
    1282:	0c 94 ff 09 	jmp	0x13fe	; 0x13fe <__epilogue_restores__>

00001286 <strnlen_P>:
    1286:	fc 01       	movw	r30, r24
    1288:	05 90       	lpm	r0, Z+
    128a:	61 50       	subi	r22, 0x01	; 1
    128c:	70 40       	sbci	r23, 0x00	; 0
    128e:	01 10       	cpse	r0, r1
    1290:	d8 f7       	brcc	.-10     	; 0x1288 <strnlen_P+0x2>
    1292:	80 95       	com	r24
    1294:	90 95       	com	r25
    1296:	8e 0f       	add	r24, r30
    1298:	9f 1f       	adc	r25, r31
    129a:	08 95       	ret

0000129c <strnlen>:
    129c:	fc 01       	movw	r30, r24
    129e:	61 50       	subi	r22, 0x01	; 1
    12a0:	70 40       	sbci	r23, 0x00	; 0
    12a2:	01 90       	ld	r0, Z+
    12a4:	01 10       	cpse	r0, r1
    12a6:	d8 f7       	brcc	.-10     	; 0x129e <strnlen+0x2>
    12a8:	80 95       	com	r24
    12aa:	90 95       	com	r25
    12ac:	8e 0f       	add	r24, r30
    12ae:	9f 1f       	adc	r25, r31
    12b0:	08 95       	ret

000012b2 <fputc>:
    12b2:	0f 93       	push	r16
    12b4:	1f 93       	push	r17
    12b6:	cf 93       	push	r28
    12b8:	df 93       	push	r29
    12ba:	8c 01       	movw	r16, r24
    12bc:	eb 01       	movw	r28, r22
    12be:	8b 81       	ldd	r24, Y+3	; 0x03
    12c0:	81 ff       	sbrs	r24, 1
    12c2:	1b c0       	rjmp	.+54     	; 0x12fa <fputc+0x48>
    12c4:	82 ff       	sbrs	r24, 2
    12c6:	0d c0       	rjmp	.+26     	; 0x12e2 <fputc+0x30>
    12c8:	2e 81       	ldd	r18, Y+6	; 0x06
    12ca:	3f 81       	ldd	r19, Y+7	; 0x07
    12cc:	8c 81       	ldd	r24, Y+4	; 0x04
    12ce:	9d 81       	ldd	r25, Y+5	; 0x05
    12d0:	28 17       	cp	r18, r24
    12d2:	39 07       	cpc	r19, r25
    12d4:	64 f4       	brge	.+24     	; 0x12ee <fputc+0x3c>
    12d6:	e8 81       	ld	r30, Y
    12d8:	f9 81       	ldd	r31, Y+1	; 0x01
    12da:	01 93       	st	Z+, r16
    12dc:	f9 83       	std	Y+1, r31	; 0x01
    12de:	e8 83       	st	Y, r30
    12e0:	06 c0       	rjmp	.+12     	; 0x12ee <fputc+0x3c>
    12e2:	e8 85       	ldd	r30, Y+8	; 0x08
    12e4:	f9 85       	ldd	r31, Y+9	; 0x09
    12e6:	80 2f       	mov	r24, r16
    12e8:	09 95       	icall
    12ea:	89 2b       	or	r24, r25
    12ec:	31 f4       	brne	.+12     	; 0x12fa <fputc+0x48>
    12ee:	8e 81       	ldd	r24, Y+6	; 0x06
    12f0:	9f 81       	ldd	r25, Y+7	; 0x07
    12f2:	01 96       	adiw	r24, 0x01	; 1
    12f4:	9f 83       	std	Y+7, r25	; 0x07
    12f6:	8e 83       	std	Y+6, r24	; 0x06
    12f8:	02 c0       	rjmp	.+4      	; 0x12fe <fputc+0x4c>
    12fa:	0f ef       	ldi	r16, 0xFF	; 255
    12fc:	1f ef       	ldi	r17, 0xFF	; 255
    12fe:	c8 01       	movw	r24, r16
    1300:	df 91       	pop	r29
    1302:	cf 91       	pop	r28
    1304:	1f 91       	pop	r17
    1306:	0f 91       	pop	r16
    1308:	08 95       	ret

0000130a <__ultoa_invert>:
    130a:	fa 01       	movw	r30, r20
    130c:	aa 27       	eor	r26, r26
    130e:	28 30       	cpi	r18, 0x08	; 8
    1310:	51 f1       	breq	.+84     	; 0x1366 <__ultoa_invert+0x5c>
    1312:	20 31       	cpi	r18, 0x10	; 16
    1314:	81 f1       	breq	.+96     	; 0x1376 <__ultoa_invert+0x6c>
    1316:	e8 94       	clt
    1318:	6f 93       	push	r22
    131a:	6e 7f       	andi	r22, 0xFE	; 254
    131c:	6e 5f       	subi	r22, 0xFE	; 254
    131e:	7f 4f       	sbci	r23, 0xFF	; 255
    1320:	8f 4f       	sbci	r24, 0xFF	; 255
    1322:	9f 4f       	sbci	r25, 0xFF	; 255
    1324:	af 4f       	sbci	r26, 0xFF	; 255
    1326:	b1 e0       	ldi	r27, 0x01	; 1
    1328:	3e d0       	rcall	.+124    	; 0x13a6 <__ultoa_invert+0x9c>
    132a:	b4 e0       	ldi	r27, 0x04	; 4
    132c:	3c d0       	rcall	.+120    	; 0x13a6 <__ultoa_invert+0x9c>
    132e:	67 0f       	add	r22, r23
    1330:	78 1f       	adc	r23, r24
    1332:	89 1f       	adc	r24, r25
    1334:	9a 1f       	adc	r25, r26
    1336:	a1 1d       	adc	r26, r1
    1338:	68 0f       	add	r22, r24
    133a:	79 1f       	adc	r23, r25
    133c:	8a 1f       	adc	r24, r26
    133e:	91 1d       	adc	r25, r1
    1340:	a1 1d       	adc	r26, r1
    1342:	6a 0f       	add	r22, r26
    1344:	71 1d       	adc	r23, r1
    1346:	81 1d       	adc	r24, r1
    1348:	91 1d       	adc	r25, r1
    134a:	a1 1d       	adc	r26, r1
    134c:	20 d0       	rcall	.+64     	; 0x138e <__ultoa_invert+0x84>
    134e:	09 f4       	brne	.+2      	; 0x1352 <__ultoa_invert+0x48>
    1350:	68 94       	set
    1352:	3f 91       	pop	r19
    1354:	2a e0       	ldi	r18, 0x0A	; 10
    1356:	26 9f       	mul	r18, r22
    1358:	11 24       	eor	r1, r1
    135a:	30 19       	sub	r19, r0
    135c:	30 5d       	subi	r19, 0xD0	; 208
    135e:	31 93       	st	Z+, r19
    1360:	de f6       	brtc	.-74     	; 0x1318 <__ultoa_invert+0xe>
    1362:	cf 01       	movw	r24, r30
    1364:	08 95       	ret
    1366:	46 2f       	mov	r20, r22
    1368:	47 70       	andi	r20, 0x07	; 7
    136a:	40 5d       	subi	r20, 0xD0	; 208
    136c:	41 93       	st	Z+, r20
    136e:	b3 e0       	ldi	r27, 0x03	; 3
    1370:	0f d0       	rcall	.+30     	; 0x1390 <__ultoa_invert+0x86>
    1372:	c9 f7       	brne	.-14     	; 0x1366 <__ultoa_invert+0x5c>
    1374:	f6 cf       	rjmp	.-20     	; 0x1362 <__ultoa_invert+0x58>
    1376:	46 2f       	mov	r20, r22
    1378:	4f 70       	andi	r20, 0x0F	; 15
    137a:	40 5d       	subi	r20, 0xD0	; 208
    137c:	4a 33       	cpi	r20, 0x3A	; 58
    137e:	18 f0       	brcs	.+6      	; 0x1386 <__ultoa_invert+0x7c>
    1380:	49 5d       	subi	r20, 0xD9	; 217
    1382:	31 fd       	sbrc	r19, 1
    1384:	40 52       	subi	r20, 0x20	; 32
    1386:	41 93       	st	Z+, r20
    1388:	02 d0       	rcall	.+4      	; 0x138e <__ultoa_invert+0x84>
    138a:	a9 f7       	brne	.-22     	; 0x1376 <__ultoa_invert+0x6c>
    138c:	ea cf       	rjmp	.-44     	; 0x1362 <__ultoa_invert+0x58>
    138e:	b4 e0       	ldi	r27, 0x04	; 4
    1390:	a6 95       	lsr	r26
    1392:	97 95       	ror	r25
    1394:	87 95       	ror	r24
    1396:	77 95       	ror	r23
    1398:	67 95       	ror	r22
    139a:	ba 95       	dec	r27
    139c:	c9 f7       	brne	.-14     	; 0x1390 <__ultoa_invert+0x86>
    139e:	00 97       	sbiw	r24, 0x00	; 0
    13a0:	61 05       	cpc	r22, r1
    13a2:	71 05       	cpc	r23, r1
    13a4:	08 95       	ret
    13a6:	9b 01       	movw	r18, r22
    13a8:	ac 01       	movw	r20, r24
    13aa:	0a 2e       	mov	r0, r26
    13ac:	06 94       	lsr	r0
    13ae:	57 95       	ror	r21
    13b0:	47 95       	ror	r20
    13b2:	37 95       	ror	r19
    13b4:	27 95       	ror	r18
    13b6:	ba 95       	dec	r27
    13b8:	c9 f7       	brne	.-14     	; 0x13ac <__ultoa_invert+0xa2>
    13ba:	62 0f       	add	r22, r18
    13bc:	73 1f       	adc	r23, r19
    13be:	84 1f       	adc	r24, r20
    13c0:	95 1f       	adc	r25, r21
    13c2:	a0 1d       	adc	r26, r0
    13c4:	08 95       	ret

000013c6 <__prologue_saves__>:
    13c6:	2f 92       	push	r2
    13c8:	3f 92       	push	r3
    13ca:	4f 92       	push	r4
    13cc:	5f 92       	push	r5
    13ce:	6f 92       	push	r6
    13d0:	7f 92       	push	r7
    13d2:	8f 92       	push	r8
    13d4:	9f 92       	push	r9
    13d6:	af 92       	push	r10
    13d8:	bf 92       	push	r11
    13da:	cf 92       	push	r12
    13dc:	df 92       	push	r13
    13de:	ef 92       	push	r14
    13e0:	ff 92       	push	r15
    13e2:	0f 93       	push	r16
    13e4:	1f 93       	push	r17
    13e6:	cf 93       	push	r28
    13e8:	df 93       	push	r29
    13ea:	cd b7       	in	r28, 0x3d	; 61
    13ec:	de b7       	in	r29, 0x3e	; 62
    13ee:	ca 1b       	sub	r28, r26
    13f0:	db 0b       	sbc	r29, r27
    13f2:	0f b6       	in	r0, 0x3f	; 63
    13f4:	f8 94       	cli
    13f6:	de bf       	out	0x3e, r29	; 62
    13f8:	0f be       	out	0x3f, r0	; 63
    13fa:	cd bf       	out	0x3d, r28	; 61
    13fc:	09 94       	ijmp

000013fe <__epilogue_restores__>:
    13fe:	2a 88       	ldd	r2, Y+18	; 0x12
    1400:	39 88       	ldd	r3, Y+17	; 0x11
    1402:	48 88       	ldd	r4, Y+16	; 0x10
    1404:	5f 84       	ldd	r5, Y+15	; 0x0f
    1406:	6e 84       	ldd	r6, Y+14	; 0x0e
    1408:	7d 84       	ldd	r7, Y+13	; 0x0d
    140a:	8c 84       	ldd	r8, Y+12	; 0x0c
    140c:	9b 84       	ldd	r9, Y+11	; 0x0b
    140e:	aa 84       	ldd	r10, Y+10	; 0x0a
    1410:	b9 84       	ldd	r11, Y+9	; 0x09
    1412:	c8 84       	ldd	r12, Y+8	; 0x08
    1414:	df 80       	ldd	r13, Y+7	; 0x07
    1416:	ee 80       	ldd	r14, Y+6	; 0x06
    1418:	fd 80       	ldd	r15, Y+5	; 0x05
    141a:	0c 81       	ldd	r16, Y+4	; 0x04
    141c:	1b 81       	ldd	r17, Y+3	; 0x03
    141e:	aa 81       	ldd	r26, Y+2	; 0x02
    1420:	b9 81       	ldd	r27, Y+1	; 0x01
    1422:	ce 0f       	add	r28, r30
    1424:	d1 1d       	adc	r29, r1
    1426:	0f b6       	in	r0, 0x3f	; 63
    1428:	f8 94       	cli
    142a:	de bf       	out	0x3e, r29	; 62
    142c:	0f be       	out	0x3f, r0	; 63
    142e:	cd bf       	out	0x3d, r28	; 61
    1430:	ed 01       	movw	r28, r26
    1432:	08 95       	ret

00001434 <_exit>:
    1434:	f8 94       	cli

00001436 <__stop_program>:
    1436:	ff cf       	rjmp	.-2      	; 0x1436 <__stop_program>
